{
  "contractName": "BankDeposit",
  "abi": [
    {
      "anonymous": false,
      "inputs": [
        {
          "indexed": false,
          "internalType": "address",
          "name": "investor",
          "type": "address"
        },
        {
          "indexed": false,
          "internalType": "uint256",
          "name": "amount",
          "type": "uint256"
        }
      ],
      "name": "Invest",
      "type": "event"
    },
    {
      "anonymous": false,
      "inputs": [
        {
          "indexed": false,
          "internalType": "address",
          "name": "investor",
          "type": "address"
        },
        {
          "indexed": false,
          "internalType": "uint256",
          "name": "amount",
          "type": "uint256"
        }
      ],
      "name": "Withdraw",
      "type": "event"
    },
    {
      "inputs": [
        {
          "internalType": "address",
          "name": "",
          "type": "address"
        }
      ],
      "name": "allPercentWithdraw",
      "outputs": [
        {
          "internalType": "uint256",
          "name": "",
          "type": "uint256"
        }
      ],
      "stateMutability": "view",
      "type": "function"
    },
    {
      "inputs": [
        {
          "internalType": "address",
          "name": "",
          "type": "address"
        }
      ],
      "name": "balance",
      "outputs": [
        {
          "internalType": "uint256",
          "name": "",
          "type": "uint256"
        }
      ],
      "stateMutability": "view",
      "type": "function"
    },
    {
      "inputs": [
        {
          "internalType": "address",
          "name": "",
          "type": "address"
        }
      ],
      "name": "percentWithdraw",
      "outputs": [
        {
          "internalType": "uint256",
          "name": "",
          "type": "uint256"
        }
      ],
      "stateMutability": "view",
      "type": "function"
    },
    {
      "inputs": [],
      "name": "stepTime",
      "outputs": [
        {
          "internalType": "uint256",
          "name": "",
          "type": "uint256"
        }
      ],
      "stateMutability": "view",
      "type": "function"
    },
    {
      "inputs": [
        {
          "internalType": "address",
          "name": "",
          "type": "address"
        }
      ],
      "name": "time",
      "outputs": [
        {
          "internalType": "uint256",
          "name": "",
          "type": "uint256"
        }
      ],
      "stateMutability": "view",
      "type": "function"
    },
    {
      "inputs": [
        {
          "internalType": "address",
          "name": "",
          "type": "address"
        }
      ],
      "name": "userDeposit",
      "outputs": [
        {
          "internalType": "uint256",
          "name": "",
          "type": "uint256"
        }
      ],
      "stateMutability": "view",
      "type": "function"
    },
    {
      "inputs": [],
      "name": "bankAccount",
      "outputs": [],
      "stateMutability": "payable",
      "type": "function"
    },
    {
      "inputs": [],
      "name": "collectPercent",
      "outputs": [],
      "stateMutability": "nonpayable",
      "type": "function"
    },
    {
      "inputs": [],
      "name": "deposit",
      "outputs": [],
      "stateMutability": "payable",
      "type": "function"
    },
    {
      "inputs": [],
      "name": "percentRate",
      "outputs": [
        {
          "internalType": "uint256",
          "name": "",
          "type": "uint256"
        }
      ],
      "stateMutability": "view",
      "type": "function"
    },
    {
      "inputs": [],
      "name": "payoutAmount",
      "outputs": [
        {
          "internalType": "uint256",
          "name": "",
          "type": "uint256"
        }
      ],
      "stateMutability": "view",
      "type": "function"
    },
    {
      "inputs": [],
      "name": "returnDeposit",
      "outputs": [],
      "stateMutability": "nonpayable",
      "type": "function"
    }
  ],
  "bytecode": "0x608060405260b460055534801561001557600080fd5b506111b8806100256000396000f3fe6080604052600436106100a75760003560e01c80637e88f603116100645780637e88f603146101af5780638090114f146101c6578063d0e30db0146101f1578063d1260edd146101fb578063e3d670d714610238578063f488fdd014610275576100a7565b80631cd01e3a146100ac578063377a0f53146100c35780634883c329146100cd5780636b46c8c31461010a5780637960eff8146101355780637c67a3e214610172575b600080fd5b3480156100b857600080fd5b506100c16102a0565b005b6100cb610649565b005b3480156100d957600080fd5b506100f460048036038101906100ef9190610e5e565b61065f565b6040516101019190610ea4565b60405180910390f35b34801561011657600080fd5b5061011f610677565b60405161012c9190610ea4565b60405180910390f35b34801561014157600080fd5b5061015c60048036038101906101579190610e5e565b6107c9565b6040516101699190610ea4565b60405180910390f35b34801561017e57600080fd5b5061019960048036038101906101949190610e5e565b6107e1565b6040516101a69190610ea4565b60405180910390f35b3480156101bb57600080fd5b506101c46107f9565b005b3480156101d257600080fd5b506101db610956565b6040516101e89190610ea4565b60405180910390f35b6101f9610b02565b005b34801561020757600080fd5b50610222600480360381019061021d9190610e5e565b610d14565b60405161022f9190610ea4565b60405180910390f35b34801561024457600080fd5b5061025f600480360381019061025a9190610e5e565b610d2c565b60405161026c9190610ea4565b60405180910390f35b34801561028157600080fd5b5061028a610d44565b6040516102979190610ea4565b60405180910390f35b6000600160003373ffffffffffffffffffffffffffffffffffffffff1673ffffffffffffffffffffffffffffffffffffffff1681526020019081526020016000205411610322576040517f08c379a000000000000000000000000000000000000000000000000000000000815260040161031990610f1c565b60405180910390fd5b610376600554600260003373ffffffffffffffffffffffffffffffffffffffff1673ffffffffffffffffffffffffffffffffffffffff16815260200190815260200160002054610d4a90919063ffffffff16565b4210156103b8576040517f08c379a00000000000000000000000000000000000000000000000000000000081526004016103af90610f88565b60405180910390fd5b600460003373ffffffffffffffffffffffffffffffffffffffff1673ffffffffffffffffffffffffffffffffffffffff1681526020019081526020016000205461044b6002600160003373ffffffffffffffffffffffffffffffffffffffff1673ffffffffffffffffffffffffffffffffffffffff16815260200190815260200160002054610d7690919063ffffffff16565b11610524576000600160003373ffffffffffffffffffffffffffffffffffffffff1673ffffffffffffffffffffffffffffffffffffffff168152602001908152602001600020819055506000600260003373ffffffffffffffffffffffffffffffffffffffff1673ffffffffffffffffffffffffffffffffffffffff168152602001908152602001600020819055506000600360003373ffffffffffffffffffffffffffffffffffffffff1673ffffffffffffffffffffffffffffffffffffffff16815260200190815260200160002081905550610647565b600061052e610677565b905061058281600360003373ffffffffffffffffffffffffffffffffffffffff1673ffffffffffffffffffffffffffffffffffffffff16815260200190815260200160002054610d4a90919063ffffffff16565b600460003373ffffffffffffffffffffffffffffffffffffffff1673ffffffffffffffffffffffffffffffffffffffff168152602001908152602001600020819055503373ffffffffffffffffffffffffffffffffffffffff166108fc829081150290604051600060405180830381858888f1935050505015801561060b573d6000803e3d6000fd5b507f884edad9ce6fa2440d8a54cc123490eb96d2768479d49ff9c7366125a9424364338260405161063d929190610fb7565b60405180910390a1505b565b66038d7ea4c6800034101561065d57600080fd5b565b60046020528060005260406000206000915090505481565b600080610682610956565b905060006106ec6005546106de600260003373ffffffffffffffffffffffffffffffffffffffff1673ffffffffffffffffffffffffffffffffffffffff1681526020019081526020016000205442610dbe90919063ffffffff16565b610de590919063ffffffff16565b90506000610755836107476064600160003373ffffffffffffffffffffffffffffffffffffffff1673ffffffffffffffffffffffffffffffffffffffff16815260200190815260200160002054610de590919063ffffffff16565b610d7690919063ffffffff16565b905060006107bd600360003373ffffffffffffffffffffffffffffffffffffffff1673ffffffffffffffffffffffffffffffffffffffff168152602001908152602001600020546107af8585610d7690919063ffffffff16565b610dbe90919063ffffffff16565b90508094505050505090565b60036020528060005260406000206000915090505481565b60026020528060005260406000206000915090505481565b6000600160003373ffffffffffffffffffffffffffffffffffffffff1673ffffffffffffffffffffffffffffffffffffffff1681526020019081526020016000205490506000600160003373ffffffffffffffffffffffffffffffffffffffff1673ffffffffffffffffffffffffffffffffffffffff168152602001908152602001600020819055506000600260003373ffffffffffffffffffffffffffffffffffffffff1673ffffffffffffffffffffffffffffffffffffffff168152602001908152602001600020819055506000600360003373ffffffffffffffffffffffffffffffffffffffff1673ffffffffffffffffffffffffffffffffffffffff168152602001908152602001600020819055503373ffffffffffffffffffffffffffffffffffffffff166108fc829081150290604051600060405180830381858888f19350505050158015610952573d6000803e3d6000fd5b5050565b6000678ac7230489e80000600160003373ffffffffffffffffffffffffffffffffffffffff1673ffffffffffffffffffffffffffffffffffffffff1681526020019081526020016000205410156109b05760059050610aff565b600a600160003373ffffffffffffffffffffffffffffffffffffffff1673ffffffffffffffffffffffffffffffffffffffff1681526020019081526020016000205410158015610a4757506801158e460913d00000600160003373ffffffffffffffffffffffffffffffffffffffff1673ffffffffffffffffffffffffffffffffffffffff16815260200190815260200160002054105b15610a555760079050610aff565b6014600160003373ffffffffffffffffffffffffffffffffffffffff1673ffffffffffffffffffffffffffffffffffffffff1681526020019081526020016000205410158015610aec57506801a055690d9db80000600160003373ffffffffffffffffffffffffffffffffffffffff1673ffffffffffffffffffffffffffffffffffffffff16815260200190815260200160002054105b15610afa5760089050610aff565b600790505b90565b6000341115610d12576000600160003373ffffffffffffffffffffffffffffffffffffffff1673ffffffffffffffffffffffffffffffffffffffff16815260200190815260200160002054118015610bac5750610ba9600554600260003373ffffffffffffffffffffffffffffffffffffffff1673ffffffffffffffffffffffffffffffffffffffff16815260200190815260200160002054610d4a90919063ffffffff16565b42115b15610bff57610bb96102a0565b6000600360003373ffffffffffffffffffffffffffffffffffffffff1673ffffffffffffffffffffffffffffffffffffffff168152602001908152602001600020819055505b610c5134600160003373ffffffffffffffffffffffffffffffffffffffff1673ffffffffffffffffffffffffffffffffffffffff16815260200190815260200160002054610d4a90919063ffffffff16565b600160003373ffffffffffffffffffffffffffffffffffffffff1673ffffffffffffffffffffffffffffffffffffffff1681526020019081526020016000208190555042600260003373ffffffffffffffffffffffffffffffffffffffff1673ffffffffffffffffffffffffffffffffffffffff168152602001908152602001600020819055507fd90d253a9de34d2fdd5a75ae49ea17fcb43af32fc8ea08cc6d2341991dd3872e3334604051610d09929190610fb7565b60405180910390a15b565b60006020528060005260406000206000915090505481565b60016020528060005260406000206000915090505481565b60055481565b6000808284610d59919061100f565b905083811015610d6c57610d6b611065565b5b8091505092915050565b6000808303610d885760009050610db8565b60008284610d969190611094565b9050828482610da5919061111d565b14610db357610db2611065565b5b809150505b92915050565b600082821115610dd157610dd0611065565b5b8183610ddd919061114e565b905092915050565b60008183610df3919061111d565b905092915050565b600080fd5b600073ffffffffffffffffffffffffffffffffffffffff82169050919050565b6000610e2b82610e00565b9050919050565b610e3b81610e20565b8114610e4657600080fd5b50565b600081359050610e5881610e32565b92915050565b600060208284031215610e7457610e73610dfb565b5b6000610e8284828501610e49565b91505092915050565b6000819050919050565b610e9e81610e8b565b82525050565b6000602082019050610eb96000830184610e95565b92915050565b600082825260208201905092915050565b7f436c69656e742069736e277420666f756e640000000000000000000000000000600082015250565b6000610f06601283610ebf565b9150610f1182610ed0565b602082019050919050565b60006020820190508181036000830152610f3581610ef9565b9050919050565b7f546f6f2066617374207769746864726177207265717565737400000000000000600082015250565b6000610f72601983610ebf565b9150610f7d82610f3c565b602082019050919050565b60006020820190508181036000830152610fa181610f65565b9050919050565b610fb181610e20565b82525050565b6000604082019050610fcc6000830185610fa8565b610fd96020830184610e95565b9392505050565b7f4e487b7100000000000000000000000000000000000000000000000000000000600052601160045260246000fd5b600061101a82610e8b565b915061102583610e8b565b9250827fffffffffffffffffffffffffffffffffffffffffffffffffffffffffffffffff0382111561105a57611059610fe0565b5b828201905092915050565b7f4e487b7100000000000000000000000000000000000000000000000000000000600052600160045260246000fd5b600061109f82610e8b565b91506110aa83610e8b565b9250817fffffffffffffffffffffffffffffffffffffffffffffffffffffffffffffffff04831182151516156110e3576110e2610fe0565b5b828202905092915050565b7f4e487b7100000000000000000000000000000000000000000000000000000000600052601260045260246000fd5b600061112882610e8b565b915061113383610e8b565b925082611143576111426110ee565b5b828204905092915050565b600061115982610e8b565b915061116483610e8b565b92508282101561117757611176610fe0565b5b82820390509291505056fea2646970667358221220e2cfa45b1a459fc863740572a9b2e64e7c7cac0c94e5866edce1097d6da1a81464736f6c634300080d0033",
  "immutableReferences": {},
  "source": "// SPDX-License-Identifier: MIT\npragma solidity >=0.4.22 <0.9.0;\n\nimport \"./SafeMath.sol\";\n\ncontract BankDeposit {\n  using SafeMath for uint;\n\n  mapping(address => uint) public userDeposit;\n  mapping(address => uint) public balance;\n  mapping(address => uint) public time;\n  mapping(address => uint) public percentWithdraw;\n  mapping(address => uint) public allPercentWithdraw;\n  uint public stepTime = 0.05 hours;\n\n  event Invest(address investor, uint256 amount);\n  event Withdraw(address investor, uint256 amount);\n\n  modifier userExists() {\n    require(balance[msg.sender] > 0, \"Client isn't found\");\n    _;\n  }\n\n  modifier checkTime() {\n    require(block.timestamp >= time[msg.sender].add(stepTime), \"Too fast withdraw request\");\n    _;\n  }\n\n  function bankAccount() public payable {\n    require(msg.value >= 0.001 ether);\n  }\n\n  function collectPercent() userExists checkTime public {\n    if (balance[msg.sender].mul(2) <= allPercentWithdraw[msg.sender]) {\n      balance[msg.sender] = 0;\n      time[msg.sender] = 0;\n      percentWithdraw[msg.sender] = 0;\n    } else {\n      uint payout = payoutAmount();\n      allPercentWithdraw[msg.sender] = percentWithdraw[msg.sender].add(payout);\n      payable(msg.sender).transfer(payout);\n      emit Withdraw(msg.sender, payout);\n    }\n  }\n\n  function deposit() public payable {\n    if (msg.value > 0) {\n      if (balance[msg.sender] > 0 && block.timestamp > time[msg.sender].add(stepTime)) {\n        collectPercent();\n        percentWithdraw[msg.sender] = 0;\n      }\n      balance[msg.sender] = balance[msg.sender].add(msg.value);\n      time[msg.sender] = block.timestamp;\n      emit Invest(msg.sender, msg.value);\n    }\n  }\n\n  function percentRate() public view returns(uint) {\n    if (balance[msg.sender] < 10 ether) {\n      return (5);\n    }\n    else if (balance[msg.sender] >= 10 && balance[msg.sender] < 20 ether) {\n      return (7);\n    }\n    else if (balance[msg.sender] >= 20 && balance[msg.sender] < 30 ether) {\n      return (8);\n    }\n    else {\n      return (7);\n    }\n  }\n\n  function payoutAmount() public view returns(uint256) {\n    uint percent = percentRate();\n    uint different = block.timestamp.sub(time[msg.sender]).div(stepTime);\n    uint rate = balance[msg.sender].div(100).mul(percent);\n    uint withdrawalAmount = rate.mul(different).sub(percentWithdraw[msg.sender]);\n    return withdrawalAmount;\n  }\n\n  function returnDeposit() public {\n    uint withdrawalAmount = balance[msg.sender];\n    balance[msg.sender] = 0;\n    time[msg.sender] = 0;\n    percentWithdraw[msg.sender] = 0;\n    payable(msg.sender).transfer(withdrawalAmount);\n  }\n}\n",
  "sourcePath": "C:\\Users\\1nuts\\IdeaProjects\\simpleFinance\\contracts\\BankDeposit.sol",
  "compiler": {
    "name": "solc",
    "version": "0.8.13+commit.abaa5c0e.Emscripten.clang"
  },
  "schemaVersion": "3.4.7",
  "updatedAt": "2022-04-23T08:51:20.661Z",
  "devdoc": {
    "kind": "dev",
    "methods": {},
    "version": 1
  },
  "userdoc": {
    "kind": "user",
    "methods": {},
    "version": 1
  }
}