{
  "contractName": "Donation",
  "abi": [
    {
      "inputs": [],
      "stateMutability": "nonpayable",
      "type": "constructor"
    },
    {
      "inputs": [
        {
          "internalType": "uint256",
          "name": "",
          "type": "uint256"
        }
      ],
      "name": "donators",
      "outputs": [
        {
          "internalType": "address",
          "name": "",
          "type": "address"
        }
      ],
      "stateMutability": "view",
      "type": "function"
    },
    {
      "inputs": [],
      "name": "owner",
      "outputs": [
        {
          "internalType": "address payable",
          "name": "",
          "type": "address"
        }
      ],
      "stateMutability": "view",
      "type": "function"
    },
    {
      "inputs": [],
      "name": "gatherDonation",
      "outputs": [],
      "stateMutability": "payable",
      "type": "function"
    },
    {
      "inputs": [],
      "name": "transferToOwner",
      "outputs": [],
      "stateMutability": "nonpayable",
      "type": "function"
    },
    {
      "inputs": [],
      "name": "getDonators",
      "outputs": [
        {
          "internalType": "address[]",
          "name": "",
          "type": "address[]"
        }
      ],
      "stateMutability": "view",
      "type": "function"
    }
  ],
  "bytecode": "0x608060405234801561001057600080fd5b50336000806101000a81548173ffffffffffffffffffffffffffffffffffffffff021916908373ffffffffffffffffffffffffffffffffffffffff160217905550610544806100606000396000f3fe60806040526004361061004a5760003560e01c806306883ad31461004f5780632d90ae94146100595780638da5cb5b14610070578063ac62f5661461009b578063bf1482fa146100d8575b600080fd5b610057610103565b005b34801561006557600080fd5b5061006e61017c565b005b34801561007c57600080fd5b5061008561023d565b604051610092919061036f565b60405180910390f35b3480156100a757600080fd5b506100c260048036038101906100bd91906103c5565b610261565b6040516100cf9190610413565b60405180910390f35b3480156100e457600080fd5b506100ed6102a0565b6040516100fa91906104ec565b60405180910390f35b66038d7ea4c6800034101561011757600080fd5b6001339080600181540180825580915050600190039060005260206000200160009091909190916101000a81548173ffffffffffffffffffffffffffffffffffffffff021916908373ffffffffffffffffffffffffffffffffffffffff160217905550565b60008054906101000a900473ffffffffffffffffffffffffffffffffffffffff1673ffffffffffffffffffffffffffffffffffffffff163373ffffffffffffffffffffffffffffffffffffffff16146101d457600080fd5b60008054906101000a900473ffffffffffffffffffffffffffffffffffffffff1673ffffffffffffffffffffffffffffffffffffffff166108fc479081150290604051600060405180830381858888f1935050505015801561023a573d6000803e3d6000fd5b50565b60008054906101000a900473ffffffffffffffffffffffffffffffffffffffff1681565b6001818154811061027157600080fd5b906000526020600020016000915054906101000a900473ffffffffffffffffffffffffffffffffffffffff1681565b6060600180548060200260200160405190810160405280929190818152602001828054801561032457602002820191906000526020600020905b8160009054906101000a900473ffffffffffffffffffffffffffffffffffffffff1673ffffffffffffffffffffffffffffffffffffffff16815260200190600101908083116102da575b5050505050905090565b600073ffffffffffffffffffffffffffffffffffffffff82169050919050565b60006103598261032e565b9050919050565b6103698161034e565b82525050565b60006020820190506103846000830184610360565b92915050565b600080fd5b6000819050919050565b6103a28161038f565b81146103ad57600080fd5b50565b6000813590506103bf81610399565b92915050565b6000602082840312156103db576103da61038a565b5b60006103e9848285016103b0565b91505092915050565b60006103fd8261032e565b9050919050565b61040d816103f2565b82525050565b60006020820190506104286000830184610404565b92915050565b600081519050919050565b600082825260208201905092915050565b6000819050602082019050919050565b610463816103f2565b82525050565b6000610475838361045a565b60208301905092915050565b6000602082019050919050565b60006104998261042e565b6104a38185610439565b93506104ae8361044a565b8060005b838110156104df5781516104c68882610469565b97506104d183610481565b9250506001810190506104b2565b5085935050505092915050565b60006020820190508181036000830152610506818461048e565b90509291505056fea26469706673582212206b7f73110c591fe3ba9c5d8d431280634dfeb1616cdb5b0eabc92495d24aa39964736f6c634300080d0033",
  "immutableReferences": {},
  "source": "// SPDX-License-Identifier: MIT\npragma solidity >=0.4.22 <0.9.0;\n\ncontract Donation {\n  address payable public owner;\n  address[] public donators;\n\n  constructor() {\n    owner = payable(msg.sender);\n  }\n\n  function gatherDonation() public payable {\n    require(msg.value >= .001 ether);\n    donators.push(msg.sender);\n  }\n\n  function transferToOwner() external {\n    require(msg.sender == owner);\n    owner.transfer(address(this).balance);\n  }\n\n  function getDonators() public view returns(address[] memory) {\n    return donators;\n  }\n}\n",
  "sourcePath": "C:\\Users\\1nuts\\IdeaProjects\\simpleFinance\\contracts\\Donation.sol",
  "compiler": {
    "name": "solc",
    "version": "0.8.13+commit.abaa5c0e.Emscripten.clang"
  },
  "schemaVersion": "3.4.7",
  "updatedAt": "2022-04-23T08:51:20.668Z",
  "devdoc": {
    "kind": "dev",
    "methods": {},
    "version": 1
  },
  "userdoc": {
    "kind": "user",
    "methods": {},
    "version": 1
  }
}