{
  "contractName": "Insurance",
  "abi": [
    {
      "inputs": [],
      "stateMutability": "nonpayable",
      "type": "constructor"
    },
    {
      "anonymous": false,
      "inputs": [
        {
          "indexed": false,
          "internalType": "uint256",
          "name": "ID",
          "type": "uint256"
        },
        {
          "indexed": false,
          "internalType": "string",
          "name": "testName",
          "type": "string"
        },
        {
          "indexed": false,
          "internalType": "string",
          "name": "date",
          "type": "string"
        },
        {
          "indexed": false,
          "internalType": "uint256",
          "name": "price",
          "type": "uint256"
        }
      ],
      "name": "recordCreated",
      "type": "event"
    },
    {
      "anonymous": false,
      "inputs": [
        {
          "indexed": false,
          "internalType": "uint256",
          "name": "ID",
          "type": "uint256"
        },
        {
          "indexed": false,
          "internalType": "string",
          "name": "testName",
          "type": "string"
        },
        {
          "indexed": false,
          "internalType": "string",
          "name": "date",
          "type": "string"
        },
        {
          "indexed": false,
          "internalType": "uint256",
          "name": "price",
          "type": "uint256"
        }
      ],
      "name": "recordSigned",
      "type": "event"
    },
    {
      "inputs": [
        {
          "internalType": "uint256",
          "name": "",
          "type": "uint256"
        }
      ],
      "name": "all_records",
      "outputs": [
        {
          "internalType": "address",
          "name": "addr",
          "type": "address"
        },
        {
          "internalType": "uint256",
          "name": "ID",
          "type": "uint256"
        },
        {
          "internalType": "string",
          "name": "name",
          "type": "string"
        },
        {
          "internalType": "string",
          "name": "date",
          "type": "string"
        },
        {
          "internalType": "uint256",
          "name": "price",
          "type": "uint256"
        },
        {
          "internalType": "bool",
          "name": "isValue",
          "type": "bool"
        },
        {
          "internalType": "uint256",
          "name": "signatureCount",
          "type": "uint256"
        }
      ],
      "stateMutability": "view",
      "type": "function"
    },
    {
      "inputs": [],
      "name": "hospital",
      "outputs": [
        {
          "internalType": "address payable",
          "name": "",
          "type": "address"
        }
      ],
      "stateMutability": "view",
      "type": "function"
    },
    {
      "inputs": [],
      "name": "insurer",
      "outputs": [
        {
          "internalType": "address payable",
          "name": "",
          "type": "address"
        }
      ],
      "stateMutability": "view",
      "type": "function"
    },
    {
      "inputs": [
        {
          "internalType": "uint256",
          "name": "",
          "type": "uint256"
        }
      ],
      "name": "records_arr",
      "outputs": [
        {
          "internalType": "uint256",
          "name": "",
          "type": "uint256"
        }
      ],
      "stateMutability": "view",
      "type": "function"
    },
    {
      "inputs": [
        {
          "internalType": "uint256",
          "name": "ID",
          "type": "uint256"
        },
        {
          "internalType": "string",
          "name": "name",
          "type": "string"
        },
        {
          "internalType": "string",
          "name": "date",
          "type": "string"
        },
        {
          "internalType": "uint256",
          "name": "price",
          "type": "uint256"
        }
      ],
      "name": "newRecord",
      "outputs": [],
      "stateMutability": "nonpayable",
      "type": "function"
    },
    {
      "inputs": [
        {
          "internalType": "uint256",
          "name": "ID",
          "type": "uint256"
        }
      ],
      "name": "signRecord",
      "outputs": [],
      "stateMutability": "payable",
      "type": "function"
    }
  ],
  "bytecode": "0x608060405234801561001057600080fd5b5073f809cedc5d77d971909946a9dea388cf56b4cf2f6000806101000a81548173ffffffffffffffffffffffffffffffffffffffff021916908373ffffffffffffffffffffffffffffffffffffffff1602179055507378124941bc3f6a6a55c1df496a5ebc1bab40e103600160006101000a81548173ffffffffffffffffffffffffffffffffffffffff021916908373ffffffffffffffffffffffffffffffffffffffff160217905550610df7806100c96000396000f3fe6080604052600436106100555760003560e01c80635bd2108e1461005a5780638624a59d14610083578063a508d0ed146100c0578063aa2fedde146100dc578063b6196c6814610107578063dbc837c51461014a575b600080fd5b34801561006657600080fd5b50610081600480360381019061007c919061091c565b610175565b005b34801561008f57600080fd5b506100aa60048036038101906100a591906109bb565b6102c3565b6040516100b791906109f7565b60405180910390f35b6100da60048036038101906100d591906109bb565b6102e7565b005b3480156100e857600080fd5b506100f1610520565b6040516100fe9190610a53565b60405180910390f35b34801561011357600080fd5b5061012e600480360381019061012991906109bb565b610544565b6040516101419796959493929190610b32565b60405180910390f35b34801561015657600080fd5b5061015f6106c3565b60405161016c9190610a53565b60405180910390f35b60006002600086815260200190815260200160002090508060050160009054906101000a900460ff16156101a857600080fd5b338160000160006101000a81548173ffffffffffffffffffffffffffffffffffffffff021916908373ffffffffffffffffffffffffffffffffffffffff1602179055508481600101819055508381600201908051906020019061020c9291906106e9565b50828160030190805190602001906102259291906106e9565b5081816004018190555060018160050160006101000a81548160ff0219169083151502179055506000816006018190555060038590806001815401808255809150506001900390600052602060002001600090919091909150557f280605db1804991625bee5d9ac659a66a80038574752cdda8a85aead408494c7858585856040516102b49493929190610baf565b60405180910390a15050505050565b600381815481106102d357600080fd5b906000526020600020016000915090505481565b60008054906101000a900473ffffffffffffffffffffffffffffffffffffffff1673ffffffffffffffffffffffffffffffffffffffff163373ffffffffffffffffffffffffffffffffffffffff16148061038e5750600160009054906101000a900473ffffffffffffffffffffffffffffffffffffffff1673ffffffffffffffffffffffffffffffffffffffff163373ffffffffffffffffffffffffffffffffffffffff16145b61039757600080fd5b600060026000838152602001908152602001600020905060018160070160003373ffffffffffffffffffffffffffffffffffffffff1673ffffffffffffffffffffffffffffffffffffffff16815260200190815260200160002054036103fc57600080fd5b60018160070160003373ffffffffffffffffffffffffffffffffffffffff1673ffffffffffffffffffffffffffffffffffffffff1681526020019081526020016000208190555080600601600081548092919061045890610c31565b91905055507f28ecfcfe86487dce5d90ed37a865ac7f7a4c769ce8e33096c101c23ab681f9ca8160010154826002018360030184600401546040516104a09493929190610d6e565b60405180910390a1600281600601540361051c5760008054906101000a900473ffffffffffffffffffffffffffffffffffffffff1673ffffffffffffffffffffffffffffffffffffffff166108fc479081150290604051600060405180830381858888f1935050505015801561051a573d6000803e3d6000fd5b505b5050565b60008054906101000a900473ffffffffffffffffffffffffffffffffffffffff1681565b60026020528060005260406000206000915090508060000160009054906101000a900473ffffffffffffffffffffffffffffffffffffffff169080600101549080600201805461059390610ca8565b80601f01602080910402602001604051908101604052809291908181526020018280546105bf90610ca8565b801561060c5780601f106105e15761010080835404028352916020019161060c565b820191906000526020600020905b8154815290600101906020018083116105ef57829003601f168201915b50505050509080600301805461062190610ca8565b80601f016020809104026020016040519081016040528092919081815260200182805461064d90610ca8565b801561069a5780601f1061066f5761010080835404028352916020019161069a565b820191906000526020600020905b81548152906001019060200180831161067d57829003601f168201915b5050505050908060040154908060050160009054906101000a900460ff16908060060154905087565b600160009054906101000a900473ffffffffffffffffffffffffffffffffffffffff1681565b8280546106f590610ca8565b90600052602060002090601f016020900481019282610717576000855561075e565b82601f1061073057805160ff191683800117855561075e565b8280016001018555821561075e579182015b8281111561075d578251825591602001919060010190610742565b5b50905061076b919061076f565b5090565b5b80821115610788576000816000905550600101610770565b5090565b6000604051905090565b600080fd5b600080fd5b6000819050919050565b6107b3816107a0565b81146107be57600080fd5b50565b6000813590506107d0816107aa565b92915050565b600080fd5b600080fd5b6000601f19601f8301169050919050565b7f4e487b7100000000000000000000000000000000000000000000000000000000600052604160045260246000fd5b610829826107e0565b810181811067ffffffffffffffff82111715610848576108476107f1565b5b80604052505050565b600061085b61078c565b90506108678282610820565b919050565b600067ffffffffffffffff821115610887576108866107f1565b5b610890826107e0565b9050602081019050919050565b82818337600083830152505050565b60006108bf6108ba8461086c565b610851565b9050828152602081018484840111156108db576108da6107db565b5b6108e684828561089d565b509392505050565b600082601f830112610903576109026107d6565b5b81356109138482602086016108ac565b91505092915050565b6000806000806080858703121561093657610935610796565b5b6000610944878288016107c1565b945050602085013567ffffffffffffffff8111156109655761096461079b565b5b610971878288016108ee565b935050604085013567ffffffffffffffff8111156109925761099161079b565b5b61099e878288016108ee565b92505060606109af878288016107c1565b91505092959194509250565b6000602082840312156109d1576109d0610796565b5b60006109df848285016107c1565b91505092915050565b6109f1816107a0565b82525050565b6000602082019050610a0c60008301846109e8565b92915050565b600073ffffffffffffffffffffffffffffffffffffffff82169050919050565b6000610a3d82610a12565b9050919050565b610a4d81610a32565b82525050565b6000602082019050610a686000830184610a44565b92915050565b6000610a7982610a12565b9050919050565b610a8981610a6e565b82525050565b600081519050919050565b600082825260208201905092915050565b60005b83811015610ac9578082015181840152602081019050610aae565b83811115610ad8576000848401525b50505050565b6000610ae982610a8f565b610af38185610a9a565b9350610b03818560208601610aab565b610b0c816107e0565b840191505092915050565b60008115159050919050565b610b2c81610b17565b82525050565b600060e082019050610b47600083018a610a80565b610b5460208301896109e8565b8181036040830152610b668188610ade565b90508181036060830152610b7a8187610ade565b9050610b8960808301866109e8565b610b9660a0830185610b23565b610ba360c08301846109e8565b98975050505050505050565b6000608082019050610bc460008301876109e8565b8181036020830152610bd68186610ade565b90508181036040830152610bea8185610ade565b9050610bf960608301846109e8565b95945050505050565b7f4e487b7100000000000000000000000000000000000000000000000000000000600052601160045260246000fd5b6000610c3c826107a0565b91507fffffffffffffffffffffffffffffffffffffffffffffffffffffffffffffffff8203610c6e57610c6d610c02565b5b600182019050919050565b7f4e487b7100000000000000000000000000000000000000000000000000000000600052602260045260246000fd5b60006002820490506001821680610cc057607f821691505b602082108103610cd357610cd2610c79565b5b50919050565b60008190508160005260206000209050919050565b60008154610cfb81610ca8565b610d058186610a9a565b94506001821660008114610d205760018114610d3257610d65565b60ff1983168652602086019350610d65565b610d3b85610cd9565b60005b83811015610d5d57815481890152600182019150602081019050610d3e565b808801955050505b50505092915050565b6000608082019050610d8360008301876109e8565b8181036020830152610d958186610cee565b90508181036040830152610da98185610cee565b9050610db860608301846109e8565b9594505050505056fea2646970667358221220dd3ae90304e1557f5535055b5c9472757abf5a9204ba6093571acb9f5ad1f1d964736f6c634300080d0033",
  "immutableReferences": {},
  "source": "// SPDX-License-Identifier: MIT\npragma solidity >=0.4.22 <0.9.0;\n\ncontract Insurance {\n  address payable public hospital;\n  address payable public insurer;\n\n  mapping (uint256 => Record) public all_records;\n  uint256[] public records_arr;\n\n  struct Record {\n    address addr;\n    uint256 ID;\n    string name;\n    string date;\n    uint256 price;\n    bool isValue;\n    uint256 signatureCount;\n    mapping (address => uint256) signatures;\n  }\n\n  modifier signOnly {\n    require (msg.sender == hospital || msg.sender == insurer);\n    _;\n  }\n\n  constructor() {\n    hospital = payable(0xf809Cedc5D77D971909946A9dEA388Cf56b4CF2F);\n    insurer = payable(0x78124941Bc3f6a6A55C1dF496a5eBC1BaB40e103);\n  }\n\n  event recordCreated(uint256 ID, string testName, string date, uint256 price);\n  event recordSigned(uint256 ID, string testName, string date, uint256 price);\n\n  function newRecord(uint256 ID, string memory name, string memory date, uint256 price) public {\n    Record storage new_record = all_records[ID];\n    require(!new_record.isValue);\n    new_record.addr = msg.sender;\n    new_record.ID = ID;\n    new_record.name = name;\n    new_record.date = date;\n    new_record.price = price;\n    new_record.isValue = true;\n    new_record.signatureCount = 0;\n    records_arr.push(ID);\n    emit recordCreated(ID, name, date, price);\n  }\n\n  function signRecord(uint256 ID) signOnly public payable {\n    Record storage record = all_records[ID];\n    require(record.signatures[msg.sender] != 1);\n    record.signatures[msg.sender] = 1;\n    record.signatureCount++;\n    emit recordSigned(record.ID, record.name, record.date, record.price);\n    if (record.signatureCount == 2) {\n      hospital.transfer(address(this).balance);\n    }\n  }\n\n}\n",
  "sourcePath": "C:\\Users\\1nuts\\IdeaProjects\\simpleFinance\\contracts\\Insurance.sol",
  "compiler": {
    "name": "solc",
    "version": "0.8.13+commit.abaa5c0e.Emscripten.clang"
  },
  "schemaVersion": "3.4.7",
  "updatedAt": "2022-04-23T08:51:20.674Z",
  "devdoc": {
    "kind": "dev",
    "methods": {},
    "version": 1
  },
  "userdoc": {
    "kind": "user",
    "methods": {},
    "version": 1
  }
}