{
  "contractName": "MyCoin",
  "abi": [
    {
      "anonymous": false,
      "inputs": [
        {
          "indexed": true,
          "internalType": "address",
          "name": "from",
          "type": "address"
        },
        {
          "indexed": true,
          "internalType": "address",
          "name": "to",
          "type": "address"
        },
        {
          "indexed": false,
          "internalType": "uint256",
          "name": "value",
          "type": "uint256"
        }
      ],
      "name": "Transfer",
      "type": "event"
    },
    {
      "inputs": [
        {
          "internalType": "address",
          "name": "",
          "type": "address"
        }
      ],
      "name": "balance",
      "outputs": [
        {
          "internalType": "uint256",
          "name": "",
          "type": "uint256"
        }
      ],
      "stateMutability": "view",
      "type": "function",
      "constant": true
    },
    {
      "inputs": [],
      "name": "Coin",
      "outputs": [],
      "stateMutability": "nonpayable",
      "type": "function"
    },
    {
      "inputs": [],
      "name": "totalSupply",
      "outputs": [
        {
          "internalType": "uint256",
          "name": "",
          "type": "uint256"
        }
      ],
      "stateMutability": "view",
      "type": "function",
      "constant": true
    },
    {
      "inputs": [
        {
          "internalType": "address",
          "name": "addr",
          "type": "address"
        }
      ],
      "name": "balanceOf",
      "outputs": [
        {
          "internalType": "uint256",
          "name": "",
          "type": "uint256"
        }
      ],
      "stateMutability": "view",
      "type": "function",
      "constant": true
    },
    {
      "inputs": [
        {
          "internalType": "address",
          "name": "to",
          "type": "address"
        },
        {
          "internalType": "uint256",
          "name": "value",
          "type": "uint256"
        }
      ],
      "name": "transfer",
      "outputs": [
        {
          "internalType": "bool",
          "name": "",
          "type": "bool"
        }
      ],
      "stateMutability": "nonpayable",
      "type": "function"
    }
  ],
  "bytecode": "0x608060405234801561001057600080fd5b50610805806100206000396000f3fe608060405234801561001057600080fd5b50600436106100575760003560e01c806318160ddd1461005c57806370a082311461007a578063a77b2e37146100aa578063a9059cbb146100b4578063e3d670d7146100e4575b600080fd5b610064610114565b6040516100719190610569565b60405180910390f35b610094600480360381019061008f91906105e7565b61011e565b6040516100a19190610569565b60405180910390f35b6100b2610167565b005b6100ce60048036038101906100c99190610640565b6102b1565b6040516100db919061069b565b60405180910390f35b6100fe60048036038101906100f991906105e7565b610495565b60405161010b9190610569565b60405180910390f35b6000600354905090565b6000600460008373ffffffffffffffffffffffffffffffffffffffff1673ffffffffffffffffffffffffffffffffffffffff168152602001908152602001600020549050919050565b336000806101000a81548173ffffffffffffffffffffffffffffffffffffffff021916908373ffffffffffffffffffffffffffffffffffffffff1602179055506040518060400160405280600681526020017f4d79436f696e0000000000000000000000000000000000000000000000000000815250600190805190602001906101f29291906104ad565b506040518060400160405280600381526020017f4d594300000000000000000000000000000000000000000000000000000000008152506002908051906020019061023e9291906104ad565b506103e8600381905550600354600460008060009054906101000a900473ffffffffffffffffffffffffffffffffffffffff1673ffffffffffffffffffffffffffffffffffffffff1673ffffffffffffffffffffffffffffffffffffffff16815260200190815260200160002081905550565b600081600460003373ffffffffffffffffffffffffffffffffffffffff1673ffffffffffffffffffffffffffffffffffffffff168152602001908152602001600020541015610303576000905061048f565b60003390508373ffffffffffffffffffffffffffffffffffffffff168173ffffffffffffffffffffffffffffffffffffffff167fddf252ad1be2c89b69c2b068fc378daa952ba7f163c4a11628f55a4df523b3ef856040516103659190610569565b60405180910390a382600460008673ffffffffffffffffffffffffffffffffffffffff1673ffffffffffffffffffffffffffffffffffffffff168152602001908152602001600020546103b891906106e5565b600460008673ffffffffffffffffffffffffffffffffffffffff1673ffffffffffffffffffffffffffffffffffffffff1681526020019081526020016000208190555082600460008373ffffffffffffffffffffffffffffffffffffffff1673ffffffffffffffffffffffffffffffffffffffff16815260200190815260200160002054610446919061073b565b600460008373ffffffffffffffffffffffffffffffffffffffff1673ffffffffffffffffffffffffffffffffffffffff1681526020019081526020016000208190555060019150505b92915050565b60046020528060005260406000206000915090505481565b8280546104b99061079e565b90600052602060002090601f0160209004810192826104db5760008555610522565b82601f106104f457805160ff1916838001178555610522565b82800160010185558215610522579182015b82811115610521578251825591602001919060010190610506565b5b50905061052f9190610533565b5090565b5b8082111561054c576000816000905550600101610534565b5090565b6000819050919050565b61056381610550565b82525050565b600060208201905061057e600083018461055a565b92915050565b600080fd5b600073ffffffffffffffffffffffffffffffffffffffff82169050919050565b60006105b482610589565b9050919050565b6105c4816105a9565b81146105cf57600080fd5b50565b6000813590506105e1816105bb565b92915050565b6000602082840312156105fd576105fc610584565b5b600061060b848285016105d2565b91505092915050565b61061d81610550565b811461062857600080fd5b50565b60008135905061063a81610614565b92915050565b6000806040838503121561065757610656610584565b5b6000610665858286016105d2565b92505060206106768582860161062b565b9150509250929050565b60008115159050919050565b61069581610680565b82525050565b60006020820190506106b0600083018461068c565b92915050565b7f4e487b7100000000000000000000000000000000000000000000000000000000600052601160045260246000fd5b60006106f082610550565b91506106fb83610550565b9250827fffffffffffffffffffffffffffffffffffffffffffffffffffffffffffffffff038211156107305761072f6106b6565b5b828201905092915050565b600061074682610550565b915061075183610550565b925082821015610764576107636106b6565b5b828203905092915050565b7f4e487b7100000000000000000000000000000000000000000000000000000000600052602260045260246000fd5b600060028204905060018216806107b657607f821691505b6020821081036107c9576107c861076f565b5b5091905056fea264697066735822122030b208fc58dd88e0b476f30a7dad9d865127924be66aeec9aac09d98369b4f8564736f6c634300080d0033",
  "immutableReferences": {},
  "source": "// SPDX-License-Identifier: MIT\npragma solidity >=0.4.22 <0.9.0;\n\ncontract MyCoin {\n  address owner;\n  string name;\n  string symbol;\n  uint256 totalCoins;\n\n  function Coin() public {\n    owner = msg.sender;\n    name = \"MyCoin\";\n    symbol = \"MYC\";\n    totalCoins = 1000;\n    balance[owner] = totalCoins;\n  }\n\n  mapping (address => uint256) public balance;\n\n  function totalSupply() view public returns (uint256) {\n    return totalCoins;\n  }\n\n  function balanceOf(address addr) view public returns (uint256) {\n    return balance[addr];\n  }\n\n  function transfer(address to, uint256 value) public returns (bool) {\n    if (balance[msg.sender] < value)\n      return false;\n    address from = msg.sender;\n    emit Transfer(from, to, value);\n    balance[to] = balance[to] + value;\n    balance[from] = balance[from] - value;\n    return true;\n  }\n\n  event Transfer(address indexed from, address indexed to, uint256 value);\n}\n",
  "sourcePath": "C:\\Users\\1nuts\\IdeaProjects\\simpleFinance\\contracts\\MyCoin.sol",
  "compiler": {
    "name": "solc",
    "version": "0.8.13+commit.abaa5c0e.Emscripten.clang"
  },
  "schemaVersion": "3.4.7",
  "updatedAt": "2022-04-23T08:51:28.751Z",
  "networkType": "ethereum",
  "devdoc": {
    "kind": "dev",
    "methods": {},
    "version": 1
  },
  "userdoc": {
    "kind": "user",
    "methods": {},
    "version": 1
  }
}