{
  "contractName": "Split",
  "abi": [
    {
      "inputs": [],
      "stateMutability": "nonpayable",
      "type": "constructor"
    },
    {
      "anonymous": false,
      "inputs": [
        {
          "indexed": false,
          "internalType": "address",
          "name": "from",
          "type": "address"
        },
        {
          "indexed": false,
          "internalType": "address[]",
          "name": "to",
          "type": "address[]"
        },
        {
          "indexed": false,
          "internalType": "uint256",
          "name": "amount",
          "type": "uint256"
        }
      ],
      "name": "Sent",
      "type": "event"
    },
    {
      "inputs": [
        {
          "internalType": "address",
          "name": "",
          "type": "address"
        }
      ],
      "name": "balances",
      "outputs": [
        {
          "internalType": "uint256",
          "name": "",
          "type": "uint256"
        }
      ],
      "stateMutability": "view",
      "type": "function"
    },
    {
      "inputs": [],
      "name": "owner",
      "outputs": [
        {
          "internalType": "address",
          "name": "",
          "type": "address"
        }
      ],
      "stateMutability": "view",
      "type": "function"
    },
    {
      "inputs": [
        {
          "internalType": "address",
          "name": "receiver",
          "type": "address"
        },
        {
          "internalType": "uint256",
          "name": "amount",
          "type": "uint256"
        }
      ],
      "name": "coin",
      "outputs": [],
      "stateMutability": "nonpayable",
      "type": "function"
    },
    {
      "inputs": [
        {
          "internalType": "uint256",
          "name": "amount",
          "type": "uint256"
        },
        {
          "internalType": "address[]",
          "name": "receivers",
          "type": "address[]"
        }
      ],
      "name": "Send",
      "outputs": [],
      "stateMutability": "nonpayable",
      "type": "function"
    }
  ],
  "bytecode": "0x608060405234801561001057600080fd5b50336000806101000a81548173ffffffffffffffffffffffffffffffffffffffff021916908373ffffffffffffffffffffffffffffffffffffffff160217905550610a9d806100606000396000f3fe608060405234801561001057600080fd5b506004361061004c5760003560e01c806327e235e314610051578063611091a3146100815780636f83e6271461009d5780638da5cb5b146100b9575b600080fd5b61006b60048036038101906100669190610420565b6100d7565b6040516100789190610466565b60405180910390f35b61009b600480360381019061009691906104ad565b6100ef565b005b6100b760048036038101906100b29190610646565b6101d7565b005b6100c161038a565b6040516100ce91906106b1565b60405180910390f35b60016020528060005260406000206000915090505481565b60008054906101000a900473ffffffffffffffffffffffffffffffffffffffff1673ffffffffffffffffffffffffffffffffffffffff163373ffffffffffffffffffffffffffffffffffffffff161461017d576040517f08c379a00000000000000000000000000000000000000000000000000000000081526004016101749061074f565b60405180910390fd5b80600160008473ffffffffffffffffffffffffffffffffffffffff1673ffffffffffffffffffffffffffffffffffffffff16815260200190815260200160002060008282546101cc919061079e565b925050819055505050565b600160003373ffffffffffffffffffffffffffffffffffffffff1673ffffffffffffffffffffffffffffffffffffffff16815260200190815260200160002054821115610259576040517f08c379a000000000000000000000000000000000000000000000000000000000815260040161025090610840565b60405180910390fd5b81600160003373ffffffffffffffffffffffffffffffffffffffff1673ffffffffffffffffffffffffffffffffffffffff16815260200190815260200160002060008282546102a89190610860565b9250508190555060005b815181101561034a578151836102c891906108c3565b600160008484815181106102df576102de6108f4565b5b602002602001015173ffffffffffffffffffffffffffffffffffffffff1673ffffffffffffffffffffffffffffffffffffffff1681526020019081526020016000206000828254610330919061079e565b92505081905550808061034290610923565b9150506102b2565b507f29bd654ddff4bc71261437a6d039923a59b033712d45ebe6222ac6263a7308fd33828460405161037e93929190610a29565b60405180910390a15050565b60008054906101000a900473ffffffffffffffffffffffffffffffffffffffff1681565b6000604051905090565b600080fd5b600080fd5b600073ffffffffffffffffffffffffffffffffffffffff82169050919050565b60006103ed826103c2565b9050919050565b6103fd816103e2565b811461040857600080fd5b50565b60008135905061041a816103f4565b92915050565b600060208284031215610436576104356103b8565b5b60006104448482850161040b565b91505092915050565b6000819050919050565b6104608161044d565b82525050565b600060208201905061047b6000830184610457565b92915050565b61048a8161044d565b811461049557600080fd5b50565b6000813590506104a781610481565b92915050565b600080604083850312156104c4576104c36103b8565b5b60006104d28582860161040b565b92505060206104e385828601610498565b9150509250929050565b600080fd5b6000601f19601f8301169050919050565b7f4e487b7100000000000000000000000000000000000000000000000000000000600052604160045260246000fd5b61053b826104f2565b810181811067ffffffffffffffff8211171561055a57610559610503565b5b80604052505050565b600061056d6103ae565b90506105798282610532565b919050565b600067ffffffffffffffff82111561059957610598610503565b5b602082029050602081019050919050565b600080fd5b60006105c26105bd8461057e565b610563565b905080838252602082019050602084028301858111156105e5576105e46105aa565b5b835b8181101561060e57806105fa888261040b565b8452602084019350506020810190506105e7565b5050509392505050565b600082601f83011261062d5761062c6104ed565b5b813561063d8482602086016105af565b91505092915050565b6000806040838503121561065d5761065c6103b8565b5b600061066b85828601610498565b925050602083013567ffffffffffffffff81111561068c5761068b6103bd565b5b61069885828601610618565b9150509250929050565b6106ab816103e2565b82525050565b60006020820190506106c660008301846106a2565b92915050565b600082825260208201905092915050565b7f546865206f776e65722063616e6e6f742073656e6420636f696e7320746f207460008201527f68656d73656c6621000000000000000000000000000000000000000000000000602082015250565b60006107396028836106cc565b9150610744826106dd565b604082019050919050565b600060208201905081810360008301526107688161072c565b9050919050565b7f4e487b7100000000000000000000000000000000000000000000000000000000600052601160045260246000fd5b60006107a98261044d565b91506107b48361044d565b9250827fffffffffffffffffffffffffffffffffffffffffffffffffffffffffffffffff038211156107e9576107e861076f565b5b828201905092915050565b7f496e73756666696369656e742066756e64730000000000000000000000000000600082015250565b600061082a6012836106cc565b9150610835826107f4565b602082019050919050565b600060208201905081810360008301526108598161081d565b9050919050565b600061086b8261044d565b91506108768361044d565b9250828210156108895761088861076f565b5b828203905092915050565b7f4e487b7100000000000000000000000000000000000000000000000000000000600052601260045260246000fd5b60006108ce8261044d565b91506108d98361044d565b9250826108e9576108e8610894565b5b828204905092915050565b7f4e487b7100000000000000000000000000000000000000000000000000000000600052603260045260246000fd5b600061092e8261044d565b91507fffffffffffffffffffffffffffffffffffffffffffffffffffffffffffffffff82036109605761095f61076f565b5b600182019050919050565b600081519050919050565b600082825260208201905092915050565b6000819050602082019050919050565b6109a0816103e2565b82525050565b60006109b28383610997565b60208301905092915050565b6000602082019050919050565b60006109d68261096b565b6109e08185610976565b93506109eb83610987565b8060005b83811015610a1c578151610a0388826109a6565b9750610a0e836109be565b9250506001810190506109ef565b5085935050505092915050565b6000606082019050610a3e60008301866106a2565b8181036020830152610a5081856109cb565b9050610a5f6040830184610457565b94935050505056fea2646970667358221220910c5856973da6221dd60b4e396e2893d7bed563c82c1d9151550c6cece2a07264736f6c634300080d0033",
  "immutableReferences": {},
  "source": "// SPDX-License-Identifier: MIT\npragma solidity >=0.4.22 <0.9.0;\n\ncontract Split {\n  event Sent(address from, address[] to, uint amount);\n\n  address public owner;\n  mapping (address => uint) public balances;\n\n  constructor () {\n    owner = msg.sender;\n  }\n\n  function coin(address receiver, uint amount) public {\n    require(msg.sender == owner, \"The owner cannot send coins to themself!\");\n    balances[receiver] += amount;\n  }\n\n  function Send(uint amount, address[] memory receivers) public {\n    require(amount <= balances[msg.sender], \"Insufficient funds\");\n    balances[msg.sender] -= amount;\n    for (uint i; i < receivers.length; i++) {\n      balances[receivers[i]] += amount / receivers.length;\n    }\n    emit Sent(msg.sender, receivers, amount);\n  }\n}\n",
  "sourcePath": "C:\\Users\\1nuts\\IdeaProjects\\simpleFinance\\contracts\\Split.sol",
  "compiler": {
    "name": "solc",
    "version": "0.8.13+commit.abaa5c0e.Emscripten.clang"
  },
  "schemaVersion": "3.4.7",
  "updatedAt": "2022-04-23T08:51:20.694Z",
  "devdoc": {
    "kind": "dev",
    "methods": {},
    "version": 1
  },
  "userdoc": {
    "kind": "user",
    "methods": {},
    "version": 1
  }
}