{
  "contractName": "Transaction",
  "abi": [
    {
      "inputs": [],
      "stateMutability": "nonpayable",
      "type": "constructor"
    },
    {
      "anonymous": false,
      "inputs": [
        {
          "indexed": false,
          "internalType": "address",
          "name": "from",
          "type": "address"
        },
        {
          "indexed": false,
          "internalType": "address",
          "name": "to",
          "type": "address"
        },
        {
          "indexed": false,
          "internalType": "uint256",
          "name": "amount",
          "type": "uint256"
        }
      ],
      "name": "Sent",
      "type": "event"
    },
    {
      "inputs": [
        {
          "internalType": "address",
          "name": "",
          "type": "address"
        }
      ],
      "name": "balances",
      "outputs": [
        {
          "internalType": "uint256",
          "name": "",
          "type": "uint256"
        }
      ],
      "stateMutability": "view",
      "type": "function"
    },
    {
      "inputs": [],
      "name": "owner",
      "outputs": [
        {
          "internalType": "address",
          "name": "",
          "type": "address"
        }
      ],
      "stateMutability": "view",
      "type": "function"
    },
    {
      "inputs": [
        {
          "internalType": "address",
          "name": "receiver",
          "type": "address"
        },
        {
          "internalType": "uint256",
          "name": "amount",
          "type": "uint256"
        }
      ],
      "name": "coin",
      "outputs": [],
      "stateMutability": "nonpayable",
      "type": "function"
    },
    {
      "inputs": [
        {
          "internalType": "address",
          "name": "receiver",
          "type": "address"
        },
        {
          "internalType": "uint256",
          "name": "amount",
          "type": "uint256"
        }
      ],
      "name": "send",
      "outputs": [],
      "stateMutability": "nonpayable",
      "type": "function"
    }
  ],
  "bytecode": "0x608060405234801561001057600080fd5b50336000806101000a81548173ffffffffffffffffffffffffffffffffffffffff021916908373ffffffffffffffffffffffffffffffffffffffff1602179055506106f7806100606000396000f3fe608060405234801561001057600080fd5b506004361061004c5760003560e01c806327e235e314610051578063611091a3146100815780638da5cb5b1461009d578063d0679d34146100bb575b600080fd5b61006b600480360381019061006691906103cb565b6100d7565b6040516100789190610411565b60405180910390f35b61009b60048036038101906100969190610458565b6100ef565b005b6100a56101d7565b6040516100b291906104a7565b60405180910390f35b6100d560048036038101906100d09190610458565b6101fb565b005b60016020528060005260406000206000915090505481565b60008054906101000a900473ffffffffffffffffffffffffffffffffffffffff1673ffffffffffffffffffffffffffffffffffffffff163373ffffffffffffffffffffffffffffffffffffffff161461017d576040517f08c379a000000000000000000000000000000000000000000000000000000000815260040161017490610545565b60405180910390fd5b80600160008473ffffffffffffffffffffffffffffffffffffffff1673ffffffffffffffffffffffffffffffffffffffff16815260200190815260200160002060008282546101cc9190610594565b925050819055505050565b60008054906101000a900473ffffffffffffffffffffffffffffffffffffffff1681565b600160003373ffffffffffffffffffffffffffffffffffffffff1673ffffffffffffffffffffffffffffffffffffffff1681526020019081526020016000205481111561027d576040517f08c379a000000000000000000000000000000000000000000000000000000000815260040161027490610636565b60405180910390fd5b80600160003373ffffffffffffffffffffffffffffffffffffffff1673ffffffffffffffffffffffffffffffffffffffff16815260200190815260200160002060008282546102cc9190610656565b9250508190555080600160008473ffffffffffffffffffffffffffffffffffffffff1673ffffffffffffffffffffffffffffffffffffffff16815260200190815260200160002060008282546103229190610594565b925050819055507f3990db2d31862302a685e8086b5755072a6e2b5b780af1ee81ece35ee3cd334533838360405161035c9392919061068a565b60405180910390a15050565b600080fd5b600073ffffffffffffffffffffffffffffffffffffffff82169050919050565b60006103988261036d565b9050919050565b6103a88161038d565b81146103b357600080fd5b50565b6000813590506103c58161039f565b92915050565b6000602082840312156103e1576103e0610368565b5b60006103ef848285016103b6565b91505092915050565b6000819050919050565b61040b816103f8565b82525050565b60006020820190506104266000830184610402565b92915050565b610435816103f8565b811461044057600080fd5b50565b6000813590506104528161042c565b92915050565b6000806040838503121561046f5761046e610368565b5b600061047d858286016103b6565b925050602061048e85828601610443565b9150509250929050565b6104a18161038d565b82525050565b60006020820190506104bc6000830184610498565b92915050565b600082825260208201905092915050565b7f546865206f776e65722063616e6e6f742073656e6420636f696e7320746f207460008201527f68656d73656c6621000000000000000000000000000000000000000000000000602082015250565b600061052f6028836104c2565b915061053a826104d3565b604082019050919050565b6000602082019050818103600083015261055e81610522565b9050919050565b7f4e487b7100000000000000000000000000000000000000000000000000000000600052601160045260246000fd5b600061059f826103f8565b91506105aa836103f8565b9250827fffffffffffffffffffffffffffffffffffffffffffffffffffffffffffffffff038211156105df576105de610565565b5b828201905092915050565b7f496e73756666696369656e742046756e64730000000000000000000000000000600082015250565b60006106206012836104c2565b915061062b826105ea565b602082019050919050565b6000602082019050818103600083015261064f81610613565b9050919050565b6000610661826103f8565b915061066c836103f8565b92508282101561067f5761067e610565565b5b828203905092915050565b600060608201905061069f6000830186610498565b6106ac6020830185610498565b6106b96040830184610402565b94935050505056fea2646970667358221220a2ead1339161bbd68e638cf78dfb59e2e23f20e781d7ee15db7cb2a0d6e724aa64736f6c634300080d0033",
  "immutableReferences": {},
  "source": "// SPDX-License-Identifier: MIT\npragma solidity >=0.5 <=0.8.13;\n\ncontract Transaction {\n  address public owner;\n\n  mapping (address => uint) public balances;\n\n  event Sent(address from, address to, uint amount);\n\n  constructor() {\n    owner = msg.sender;\n  }\n\n  function coin(address receiver, uint amount) public {\n    require(msg.sender == owner, \"The owner cannot send coins to themself!\");\n    balances[receiver] += amount;\n  }\n\n  function send(address receiver, uint amount) public {\n    require(amount <= balances[msg.sender], \"Insufficient Funds\");\n    balances[msg.sender] -= amount;\n    balances[receiver] += amount;\n    emit Sent(msg.sender, receiver, amount);\n  }\n}\n",
  "sourcePath": "C:\\Users\\1nuts\\IdeaProjects\\simpleFinance\\contracts\\Transaction.sol",
  "compiler": {
    "name": "solc",
    "version": "0.8.13+commit.abaa5c0e.Emscripten.clang"
  },
  "schemaVersion": "3.4.7",
  "updatedAt": "2022-04-23T08:51:20.699Z",
  "devdoc": {
    "kind": "dev",
    "methods": {},
    "version": 1
  },
  "userdoc": {
    "kind": "user",
    "methods": {},
    "version": 1
  }
}