{
  "contractName": "Greetings",
  "abi": [
    {
      "inputs": [],
      "name": "greet",
      "outputs": [
        {
          "internalType": "string",
          "name": "",
          "type": "string"
        }
      ],
      "stateMutability": "view",
      "type": "function",
      "constant": true
    },
    {
      "inputs": [
        {
          "internalType": "string",
          "name": "new_greeting",
          "type": "string"
        }
      ],
      "name": "setGreeting",
      "outputs": [
        {
          "internalType": "bool",
          "name": "",
          "type": "bool"
        }
      ],
      "stateMutability": "nonpayable",
      "type": "function"
    }
  ],
  "bytecode": "0x60806040526040518060400160405280600c81526020017f48656c6c6f20776f726c642100000000000000000000000000000000000000008152506000908051906020019061004f929190610062565b5034801561005c57600080fd5b50610165565b82805461006e90610134565b90600052602060002090601f01602090048101928261009057600085556100d7565b82601f106100a957805160ff19168380011785556100d7565b828001600101855582156100d7579182015b828111156100d65782518255916020019190600101906100bb565b5b5090506100e491906100e8565b5090565b5b808211156101015760008160009055506001016100e9565b5090565b7f4e487b7100000000000000000000000000000000000000000000000000000000600052602260045260246000fd5b6000600282049050600182168061014c57607f821691505b60208210810361015f5761015e610105565b5b50919050565b6104f9806101746000396000f3fe608060405234801561001057600080fd5b50600436106100365760003560e01c8063a41368621461003b578063cfae32171461006b575b600080fd5b6100556004803603810190610050919061033a565b610089565b604051610062919061039e565b60405180910390f35b6100736100ab565b6040516100809190610441565b60405180910390f35b600081600090805190602001906100a192919061013d565b5060019050919050565b6060600080546100ba90610492565b80601f01602080910402602001604051908101604052809291908181526020018280546100e690610492565b80156101335780601f1061010857610100808354040283529160200191610133565b820191906000526020600020905b81548152906001019060200180831161011657829003601f168201915b5050505050905090565b82805461014990610492565b90600052602060002090601f01602090048101928261016b57600085556101b2565b82601f1061018457805160ff19168380011785556101b2565b828001600101855582156101b2579182015b828111156101b1578251825591602001919060010190610196565b5b5090506101bf91906101c3565b5090565b5b808211156101dc5760008160009055506001016101c4565b5090565b6000604051905090565b600080fd5b600080fd5b600080fd5b600080fd5b6000601f19601f8301169050919050565b7f4e487b7100000000000000000000000000000000000000000000000000000000600052604160045260246000fd5b610247826101fe565b810181811067ffffffffffffffff821117156102665761026561020f565b5b80604052505050565b60006102796101e0565b9050610285828261023e565b919050565b600067ffffffffffffffff8211156102a5576102a461020f565b5b6102ae826101fe565b9050602081019050919050565b82818337600083830152505050565b60006102dd6102d88461028a565b61026f565b9050828152602081018484840111156102f9576102f86101f9565b5b6103048482856102bb565b509392505050565b600082601f830112610321576103206101f4565b5b81356103318482602086016102ca565b91505092915050565b6000602082840312156103505761034f6101ea565b5b600082013567ffffffffffffffff81111561036e5761036d6101ef565b5b61037a8482850161030c565b91505092915050565b60008115159050919050565b61039881610383565b82525050565b60006020820190506103b3600083018461038f565b92915050565b600081519050919050565b600082825260208201905092915050565b60005b838110156103f35780820151818401526020810190506103d8565b83811115610402576000848401525b50505050565b6000610413826103b9565b61041d81856103c4565b935061042d8185602086016103d5565b610436816101fe565b840191505092915050565b6000602082019050818103600083015261045b8184610408565b905092915050565b7f4e487b7100000000000000000000000000000000000000000000000000000000600052602260045260246000fd5b600060028204905060018216806104aa57607f821691505b6020821081036104bd576104bc610463565b5b5091905056fea2646970667358221220014d768ea75a204739ad736848ba619d34f0066c9377b3f096abd84252ea54df64736f6c634300080d0033",
  "immutableReferences": {},
  "source": "// SPDX-License-Identifier: MIT\npragma solidity >=0.4.22 <0.9.0;\n\ncontract Greetings {\n  string greeting = \"Hello world!\";\n\n  function greet() public view returns(string memory) {\n    return greeting;\n  }\n\n  function setGreeting(string memory new_greeting) public returns(bool) {\n    greeting = new_greeting;\n    return true;\n  }\n}\n",
  "sourcePath": "C:\\Users\\1nuts\\IdeaProjects\\SimpleDapp\\contracts\\Greetings.sol",
  "compiler": {
    "name": "solc",
    "version": "0.8.13+commit.abaa5c0e.Emscripten.clang"
  },
  "schemaVersion": "3.4.7",
  "updatedAt": "2022-04-23T12:07:33.787Z",
  "networkType": "ethereum",
  "devdoc": {
    "kind": "dev",
    "methods": {},
    "version": 1
  },
  "userdoc": {
    "kind": "user",
    "methods": {},
    "version": 1
  }
}