{
  "contractName": "Dice",
  "abi": [
    {
      "inputs": [],
      "stateMutability": "nonpayable",
      "type": "constructor"
    },
    {
      "inputs": [],
      "name": "manager",
      "outputs": [
        {
          "internalType": "address",
          "name": "",
          "type": "address"
        }
      ],
      "stateMutability": "view",
      "type": "function",
      "constant": true
    },
    {
      "inputs": [
        {
          "internalType": "uint256",
          "name": "",
          "type": "uint256"
        }
      ],
      "name": "players",
      "outputs": [
        {
          "internalType": "address payable",
          "name": "",
          "type": "address"
        }
      ],
      "stateMutability": "view",
      "type": "function",
      "constant": true
    },
    {
      "inputs": [],
      "name": "CEO",
      "outputs": [],
      "stateMutability": "nonpayable",
      "type": "function"
    },
    {
      "inputs": [],
      "name": "Enter",
      "outputs": [],
      "stateMutability": "payable",
      "type": "function",
      "payable": true
    },
    {
      "inputs": [
        {
          "internalType": "uint256",
          "name": "number",
          "type": "uint256"
        }
      ],
      "name": "getRandomNumber",
      "outputs": [
        {
          "internalType": "uint256",
          "name": "",
          "type": "uint256"
        }
      ],
      "stateMutability": "view",
      "type": "function",
      "constant": true
    },
    {
      "inputs": [],
      "name": "Winner",
      "outputs": [
        {
          "internalType": "string",
          "name": "",
          "type": "string"
        },
        {
          "internalType": "uint256",
          "name": "",
          "type": "uint256"
        },
        {
          "internalType": "uint256",
          "name": "",
          "type": "uint256"
        }
      ],
      "stateMutability": "payable",
      "type": "function",
      "payable": true
    }
  ],
  "bytecode": "0x608060405234801561001057600080fd5b50336000806101000a81548173ffffffffffffffffffffffffffffffffffffffff021916908373ffffffffffffffffffffffffffffffffffffffff160217905550610a50806100606000396000f3fe6080604052600436106100555760003560e01c80631097e5791461005a578063481c6a7514610064578063a10885711461008f578063b2b98ed2146100a6578063b37217a4146100c6578063f71d96cb14610103575b600080fd5b610062610140565b005b34801561007057600080fd5b506100796101ee565b60405161008691906105c8565b60405180910390f35b34801561009b57600080fd5b506100a4610212565b005b6100ae610254565b6040516100bd93929190610695565b60405180910390f35b3480156100d257600080fd5b506100ed60048036038101906100e89190610704565b6104f4565b6040516100fa9190610731565b60405180910390f35b34801561010f57600080fd5b5061012a60048036038101906101259190610704565b610548565b604051610137919061076d565b60405180910390f35b66038d7ea4c680003411610189576040517f08c379a0000000000000000000000000000000000000000000000000000000008152600401610180906107d4565b60405180910390fd5b6001339080600181540180825580915050600190039060005260206000200160009091909190916101000a81548173ffffffffffffffffffffffffffffffffffffffff021916908373ffffffffffffffffffffffffffffffffffffffff160217905550565b60008054906101000a900473ffffffffffffffffffffffffffffffffffffffff1681565b336000806101000a81548173ffffffffffffffffffffffffffffffffffffffff021916908373ffffffffffffffffffffffffffffffffffffffff160217905550565b606060008060008054906101000a900473ffffffffffffffffffffffffffffffffffffffff1673ffffffffffffffffffffffffffffffffffffffff163373ffffffffffffffffffffffffffffffffffffffff16146102e7576040517f08c379a00000000000000000000000000000000000000000000000000000000081526004016102de90610840565b60405180910390fd5b60006102f360006104f4565b9050600061030160016104f4565b9050808211156103d85760016000815481106103205761031f610860565b5b9060005260206000200160009054906101000a900473ffffffffffffffffffffffffffffffffffffffff1673ffffffffffffffffffffffffffffffffffffffff166108fc479081150290604051600060405180830381858888f19350505050158015610390573d6000803e3d6000fd5b5081816040518060400160405280601181526020017f506c61796572312069732077696e6e6572000000000000000000000000000000815250919094509450945050506104ef565b808210156104ac57600180815481106103f4576103f3610860565b5b9060005260206000200160009054906101000a900473ffffffffffffffffffffffffffffffffffffffff1673ffffffffffffffffffffffffffffffffffffffff166108fc479081150290604051600060405180830381858888f19350505050158015610464573d6000803e3d6000fd5b5081816040518060400160405280601181526020017f506c61796572322069732077696e6e6572000000000000000000000000000000815250919094509450945050506104ef565b81816040518060400160405280600481526020017f6472617700000000000000000000000000000000000000000000000000000000815250919094509450945050505b909192565b600080600a42338560405160200161050e939291906108f8565b6040516020818303038152906040528051906020012060001c6105319190610964565b905060028161054091906109c4565b915050919050565b6001818154811061055857600080fd5b906000526020600020016000915054906101000a900473ffffffffffffffffffffffffffffffffffffffff1681565b600073ffffffffffffffffffffffffffffffffffffffff82169050919050565b60006105b282610587565b9050919050565b6105c2816105a7565b82525050565b60006020820190506105dd60008301846105b9565b92915050565b600081519050919050565b600082825260208201905092915050565b60005b8381101561061d578082015181840152602081019050610602565b8381111561062c576000848401525b50505050565b6000601f19601f8301169050919050565b600061064e826105e3565b61065881856105ee565b93506106688185602086016105ff565b61067181610632565b840191505092915050565b6000819050919050565b61068f8161067c565b82525050565b600060608201905081810360008301526106af8186610643565b90506106be6020830185610686565b6106cb6040830184610686565b949350505050565b600080fd5b6106e18161067c565b81146106ec57600080fd5b50565b6000813590506106fe816106d8565b92915050565b60006020828403121561071a576107196106d3565b5b6000610728848285016106ef565b91505092915050565b60006020820190506107466000830184610686565b92915050565b600061075782610587565b9050919050565b6107678161074c565b82525050565b6000602082019050610782600083018461075e565b92915050565b7f5468652062657420697320746f6f20736d616c6c210000000000000000000000600082015250565b60006107be6015836105ee565b91506107c982610788565b602082019050919050565b600060208201905081810360008301526107ed816107b1565b9050919050565b7f4e6f742061636365737300000000000000000000000000000000000000000000600082015250565b600061082a600a836105ee565b9150610835826107f4565b602082019050919050565b600060208201905081810360008301526108598161081d565b9050919050565b7f4e487b7100000000000000000000000000000000000000000000000000000000600052603260045260246000fd5b6000819050919050565b6108aa6108a58261067c565b61088f565b82525050565b60008160601b9050919050565b60006108c8826108b0565b9050919050565b60006108da826108bd565b9050919050565b6108f26108ed826105a7565b6108cf565b82525050565b60006109048286610899565b60208201915061091482856108e1565b6014820191506109248284610899565b602082019150819050949350505050565b7f4e487b7100000000000000000000000000000000000000000000000000000000600052601260045260246000fd5b600061096f8261067c565b915061097a8361067c565b92508261098a57610989610935565b5b828206905092915050565b7f4e487b7100000000000000000000000000000000000000000000000000000000600052601160045260246000fd5b60006109cf8261067c565b91506109da8361067c565b9250827fffffffffffffffffffffffffffffffffffffffffffffffffffffffffffffffff03821115610a0f57610a0e610995565b5b82820190509291505056fea264697066735822122054a4d7221e68beadfe97978125b6bff8b63aa3812068d9be9e63c55d6264617f64736f6c634300080d0033",
  "immutableReferences": {},
  "source": "// SPDX-License-Identifier: MIT\npragma solidity >=0.4.22 <0.9.0;\n\ncontract Dice {\n  address public manager;\n  address payable[] public players;\n\n  modifier onlyManager() {\n    require(manager == msg.sender, \"Access denied\");\n    _;\n  }\n\n  constructor() {\n    manager = msg.sender;\n  }\n  function CEO() public {\n    manager = msg.sender;\n  }\n\n  function Enter() public payable {\n    require(msg.value > .001 ether, \"The bet is too small!\");\n    players.push(payable(msg.sender));\n  }\n\n  function getRandomNumber(uint number) public view returns (uint) {\n    uint cast = uint(keccak256(abi.encodePacked(block.timestamp, msg.sender, number))) % 10;\n    return (cast + 2);\n  }\n\n  function Winner() public payable restricted returns(string memory, uint, uint) {\n    uint player1 = getRandomNumber(0);\n    uint player2 = getRandomNumber(1);\n\n    if (player1 > player2) {\n      players[0].transfer(address(this).balance);\n      return (\"Player1 is winner\", player1, player2);\n    }\n    else if (player1 < player2) {\n      players[1].transfer(address(this).balance);\n      return (\"Player2 is winner\", player1, player2);\n    }\n    else\n      return (\"draw\", player1, player2);\n  }\n\n  modifier restricted() {\n    require(msg.sender == manager, \"Not access\");\n    _;\n  }\n}\n",
  "sourcePath": "C:\\Users\\1nuts\\IdeaProjects\\simplegames\\contracts\\Dice.sol",
  "compiler": {
    "name": "solc",
    "version": "0.8.13+commit.abaa5c0e.Emscripten.clang"
  },
  "schemaVersion": "3.4.7",
  "updatedAt": "2022-04-23T15:12:57.838Z",
  "networkType": "ethereum",
  "devdoc": {
    "kind": "dev",
    "methods": {},
    "version": 1
  },
  "userdoc": {
    "kind": "user",
    "methods": {},
    "version": 1
  }
}