{
  "contractName": "DragonForge",
  "abi": [
    {
      "anonymous": false,
      "inputs": [
        {
          "indexed": false,
          "internalType": "uint256",
          "name": "id",
          "type": "uint256"
        },
        {
          "indexed": false,
          "internalType": "string",
          "name": "name",
          "type": "string"
        },
        {
          "indexed": false,
          "internalType": "uint256",
          "name": "dna",
          "type": "uint256"
        }
      ],
      "name": "NewDragon",
      "type": "event"
    },
    {
      "inputs": [
        {
          "internalType": "string",
          "name": "name",
          "type": "string"
        }
      ],
      "name": "CreateDragon",
      "outputs": [],
      "stateMutability": "nonpayable",
      "type": "function"
    },
    {
      "inputs": [
        {
          "internalType": "uint256",
          "name": "",
          "type": "uint256"
        }
      ],
      "name": "DragonOwner",
      "outputs": [
        {
          "internalType": "address",
          "name": "",
          "type": "address"
        }
      ],
      "stateMutability": "view",
      "type": "function",
      "constant": true
    },
    {
      "inputs": [
        {
          "internalType": "uint256",
          "name": "",
          "type": "uint256"
        }
      ],
      "name": "dragons",
      "outputs": [
        {
          "internalType": "uint256",
          "name": "id",
          "type": "uint256"
        },
        {
          "internalType": "string",
          "name": "name",
          "type": "string"
        },
        {
          "internalType": "uint256",
          "name": "dna",
          "type": "uint256"
        }
      ],
      "stateMutability": "view",
      "type": "function",
      "constant": true
    },
    {
      "inputs": [
        {
          "internalType": "string",
          "name": "name",
          "type": "string"
        },
        {
          "internalType": "uint256",
          "name": "id",
          "type": "uint256"
        },
        {
          "internalType": "uint256",
          "name": "food",
          "type": "uint256"
        }
      ],
      "name": "Reforge",
      "outputs": [],
      "stateMutability": "payable",
      "type": "function",
      "payable": true
    }
  ],
  "bytecode": "0x608060405234801561001057600080fd5b50610bfd806100206000396000f3fe60806040526004361061003f5760003560e01c80630c50c644146100445780630fab557b146100815780639222073a146100aa578063d2a59d69146100c6575b600080fd5b34801561005057600080fd5b5061006b60048036038101906100669190610604565b610105565b6040516100789190610672565b60405180910390f35b34801561008d57600080fd5b506100a860048036038101906100a391906107d3565b610138565b005b6100c460048036038101906100bf919061081c565b6102e9565b005b3480156100d257600080fd5b506100ed60048036038101906100e89190610604565b61040b565b6040516100fc93929190610922565b60405180910390f35b60016020528060005260406000206000915054906101000a900473ffffffffffffffffffffffffffffffffffffffff1681565b6000610143826104cd565b90506000600260003373ffffffffffffffffffffffffffffffffffffffff1673ffffffffffffffffffffffffffffffffffffffff168152602001908152602001600020549050600060405180606001604052808381526020018581526020018481525090806001815401808255809150506001900390600052602060002090600302016000909190919091506000820151816000015560208201518160010190805190602001906101f5929190610517565b50604082015181600201555050336001600083815260200190815260200160002060006101000a81548173ffffffffffffffffffffffffffffffffffffffff021916908373ffffffffffffffffffffffffffffffffffffffff1602179055507f094a968afe62c9f0ce8d6395ff90deb5cbe7809a9ea66019ef5c61335ab3f11781848460405161028793929190610922565b60405180910390a1600260003373ffffffffffffffffffffffffffffffffffffffff1673ffffffffffffffffffffffffffffffffffffffff16815260200190815260200160002060008154809291906102df9061098f565b9190505550505050565b6000341161032c576040517f08c379a000000000000000000000000000000000000000000000000000000000815260040161032390610a23565b60405180910390fd5b60008160405160200161033f9190610a43565b6040516020818303038152906040528051906020012060001c9050662386f26fc100008161036d9190610a8d565b905060006002828561037f9190610abe565b6103899190610b14565b9050600060405180606001604052808681526020018781526020018381525090806001815401808255809150506001900390600052602060002090600302016000909190919091506000820151816000015560208201518160010190805190602001906103f7929190610517565b506040820151816002015550505050505050565b6000818154811061041b57600080fd5b906000526020600020906003020160009150905080600001549080600101805461044490610b74565b80601f016020809104026020016040519081016040528092919081815260200182805461047090610b74565b80156104bd5780601f10610492576101008083540402835291602001916104bd565b820191906000526020600020905b8154815290600101906020018083116104a057829003601f168201915b5050505050908060020154905083565b600080826040516020016104e19190610ba5565b6040516020818303038152906040528051906020012060001c9050662386f26fc100008161050f9190610a8d565b915050919050565b82805461052390610b74565b90600052602060002090601f016020900481019282610545576000855561058c565b82601f1061055e57805160ff191683800117855561058c565b8280016001018555821561058c579182015b8281111561058b578251825591602001919060010190610570565b5b509050610599919061059d565b5090565b5b808211156105b657600081600090555060010161059e565b5090565b6000604051905090565b600080fd5b600080fd5b6000819050919050565b6105e1816105ce565b81146105ec57600080fd5b50565b6000813590506105fe816105d8565b92915050565b60006020828403121561061a576106196105c4565b5b6000610628848285016105ef565b91505092915050565b600073ffffffffffffffffffffffffffffffffffffffff82169050919050565b600061065c82610631565b9050919050565b61066c81610651565b82525050565b60006020820190506106876000830184610663565b92915050565b600080fd5b600080fd5b6000601f19601f8301169050919050565b7f4e487b7100000000000000000000000000000000000000000000000000000000600052604160045260246000fd5b6106e082610697565b810181811067ffffffffffffffff821117156106ff576106fe6106a8565b5b80604052505050565b60006107126105ba565b905061071e82826106d7565b919050565b600067ffffffffffffffff82111561073e5761073d6106a8565b5b61074782610697565b9050602081019050919050565b82818337600083830152505050565b600061077661077184610723565b610708565b90508281526020810184848401111561079257610791610692565b5b61079d848285610754565b509392505050565b600082601f8301126107ba576107b961068d565b5b81356107ca848260208601610763565b91505092915050565b6000602082840312156107e9576107e86105c4565b5b600082013567ffffffffffffffff811115610807576108066105c9565b5b610813848285016107a5565b91505092915050565b600080600060608486031215610835576108346105c4565b5b600084013567ffffffffffffffff811115610853576108526105c9565b5b61085f868287016107a5565b9350506020610870868287016105ef565b9250506040610881868287016105ef565b9150509250925092565b610894816105ce565b82525050565b600081519050919050565b600082825260208201905092915050565b60005b838110156108d45780820151818401526020810190506108b9565b838111156108e3576000848401525b50505050565b60006108f48261089a565b6108fe81856108a5565b935061090e8185602086016108b6565b61091781610697565b840191505092915050565b6000606082019050610937600083018661088b565b818103602083015261094981856108e9565b9050610958604083018461088b565b949350505050565b7f4e487b7100000000000000000000000000000000000000000000000000000000600052601160045260246000fd5b600061099a826105ce565b91507fffffffffffffffffffffffffffffffffffffffffffffffffffffffffffffffff82036109cc576109cb610960565b5b600182019050919050565b7f50617920666f7220666f6f642100000000000000000000000000000000000000600082015250565b6000610a0d600d836108a5565b9150610a18826109d7565b602082019050919050565b60006020820190508181036000830152610a3c81610a00565b9050919050565b6000602082019050610a58600083018461088b565b92915050565b7f4e487b7100000000000000000000000000000000000000000000000000000000600052601260045260246000fd5b6000610a98826105ce565b9150610aa3836105ce565b925082610ab357610ab2610a5e565b5b828206905092915050565b6000610ac9826105ce565b9150610ad4836105ce565b9250827fffffffffffffffffffffffffffffffffffffffffffffffffffffffffffffffff03821115610b0957610b08610960565b5b828201905092915050565b6000610b1f826105ce565b9150610b2a836105ce565b925082610b3a57610b39610a5e565b5b828204905092915050565b7f4e487b7100000000000000000000000000000000000000000000000000000000600052602260045260246000fd5b60006002820490506001821680610b8c57607f821691505b602082108103610b9f57610b9e610b45565b5b50919050565b60006020820190508181036000830152610bbf81846108e9565b90509291505056fea264697066735822122096b4b5f3e9375d1c0196ef46a8f9381787ae9380547be0a06c774acfef96761b64736f6c634300080d0033",
  "immutableReferences": {},
  "source": "// SPDX-License-Identifier: MIT\r\npragma solidity ^0.8.0;\r\n\r\nimport \"./DragonFarm.sol\";\r\ncontract DragonForge is DragonFarm {\r\n  function Reforge(string memory name, uint id, uint food) public payable {\r\n    require(msg.value > 0, \"Pay for food!\");\r\n    uint brain = uint(keccak256(abi.encode(food)));\r\n    brain = brain % (10 ** 16);\r\n    uint newDna = (id + brain) / 2;\r\n    dragons.push(Dragon(id, name, newDna));\r\n  }\r\n}\r\n",
  "sourcePath": "C:\\Users\\1nuts\\IdeaProjects\\simplegames\\contracts\\DragonForge.sol",
  "compiler": {
    "name": "solc",
    "version": "0.8.13+commit.abaa5c0e.Emscripten.clang"
  },
  "schemaVersion": "3.4.7",
  "updatedAt": "2022-04-23T15:13:00.389Z",
  "networkType": "ethereum",
  "devdoc": {
    "kind": "dev",
    "methods": {},
    "version": 1
  },
  "userdoc": {
    "kind": "user",
    "methods": {},
    "version": 1
  }
}