{
  "contractName": "RLottery",
  "abi": [
    {
      "inputs": [
        {
          "internalType": "uint256",
          "name": "",
          "type": "uint256"
        }
      ],
      "name": "players",
      "outputs": [
        {
          "internalType": "string",
          "name": "name",
          "type": "string"
        }
      ],
      "stateMutability": "view",
      "type": "function",
      "constant": true
    },
    {
      "inputs": [
        {
          "internalType": "string",
          "name": "name",
          "type": "string"
        }
      ],
      "name": "getTickets",
      "outputs": [
        {
          "internalType": "string",
          "name": "",
          "type": "string"
        },
        {
          "internalType": "uint256",
          "name": "",
          "type": "uint256"
        }
      ],
      "stateMutability": "nonpayable",
      "type": "function"
    },
    {
      "inputs": [],
      "name": "Winner",
      "outputs": [
        {
          "internalType": "string",
          "name": "",
          "type": "string"
        },
        {
          "internalType": "string",
          "name": "",
          "type": "string"
        },
        {
          "internalType": "string",
          "name": "",
          "type": "string"
        },
        {
          "internalType": "uint256",
          "name": "",
          "type": "uint256"
        }
      ],
      "stateMutability": "view",
      "type": "function",
      "constant": true
    }
  ],
  "bytecode": "0x608060405234801561001057600080fd5b50610ae1806100206000396000f3fe608060405234801561001057600080fd5b50600436106100415760003560e01c8063ab21b05514610046578063b2b98ed214610077578063f71d96cb14610098575b600080fd5b610060600480360381019061005b91906105e7565b6100c8565b60405161006e9291906106d1565b60405180910390f35b61007f6101af565b60405161008f9493929190610701565b60405180910390f35b6100b260048036038101906100ad9190610787565b610344565b6040516100bf91906107b4565b60405180910390f35b60606000600a6000541115610112576040517f08c379a000000000000000000000000000000000000000000000000000000000815260040161010990610848565b60405180910390fd5b60008081548092919061012490610897565b9190505550604051806020016040528084815250600160008054815260200190815260200160002060008201518160000190805190602001906101689291906103ea565b509050506000546040518060400160405280600f81526020017f596f7572207469636b65742069732000000000000000000000000000000000008152509091509150915091565b6060806060600080600060016000546101c891906108df565b42336000546040516020016101df939291906109ae565b6040516020818303038152906040528051906020012060001c6102029190610a1a565b9050808061020f90610897565b915050600054816102209190610a1a565b915060016000838152602001908152602001600020600001826040518060400160405280601381526020017f5468652077696e6e6572206e616d652069732000000000000000000000000000815250919081805461027d90610a7a565b80601f01602080910402602001604051908101604052809291908181526020018280546102a990610a7a565b80156102f65780601f106102cb576101008083540402835291602001916102f6565b820191906000526020600020905b8154815290600101906020018083116102d957829003601f168201915b505050505091506040518060400160405280601581526020017f5468652077696e6e6572207469636b6574206973200000000000000000000000815250909550955095509550505090919293565b600160205280600052604060002060009150905080600001805461036790610a7a565b80601f016020809104026020016040519081016040528092919081815260200182805461039390610a7a565b80156103e05780601f106103b5576101008083540402835291602001916103e0565b820191906000526020600020905b8154815290600101906020018083116103c357829003601f168201915b5050505050905081565b8280546103f690610a7a565b90600052602060002090601f016020900481019282610418576000855561045f565b82601f1061043157805160ff191683800117855561045f565b8280016001018555821561045f579182015b8281111561045e578251825591602001919060010190610443565b5b50905061046c9190610470565b5090565b5b80821115610489576000816000905550600101610471565b5090565b6000604051905090565b600080fd5b600080fd5b600080fd5b600080fd5b6000601f19601f8301169050919050565b7f4e487b7100000000000000000000000000000000000000000000000000000000600052604160045260246000fd5b6104f4826104ab565b810181811067ffffffffffffffff82111715610513576105126104bc565b5b80604052505050565b600061052661048d565b905061053282826104eb565b919050565b600067ffffffffffffffff821115610552576105516104bc565b5b61055b826104ab565b9050602081019050919050565b82818337600083830152505050565b600061058a61058584610537565b61051c565b9050828152602081018484840111156105a6576105a56104a6565b5b6105b1848285610568565b509392505050565b600082601f8301126105ce576105cd6104a1565b5b81356105de848260208601610577565b91505092915050565b6000602082840312156105fd576105fc610497565b5b600082013567ffffffffffffffff81111561061b5761061a61049c565b5b610627848285016105b9565b91505092915050565b600081519050919050565b600082825260208201905092915050565b60005b8381101561066a57808201518184015260208101905061064f565b83811115610679576000848401525b50505050565b600061068a82610630565b610694818561063b565b93506106a481856020860161064c565b6106ad816104ab565b840191505092915050565b6000819050919050565b6106cb816106b8565b82525050565b600060408201905081810360008301526106eb818561067f565b90506106fa60208301846106c2565b9392505050565b6000608082019050818103600083015261071b818761067f565b9050818103602083015261072f818661067f565b90508181036040830152610743818561067f565b905061075260608301846106c2565b95945050505050565b610764816106b8565b811461076f57600080fd5b50565b6000813590506107818161075b565b92915050565b60006020828403121561079d5761079c610497565b5b60006107ab84828501610772565b91505092915050565b600060208201905081810360008301526107ce818461067f565b905092915050565b7f54686572652061726520616c726561647920313020706c617965727320696e2060008201527f746865206c6f7474657279210000000000000000000000000000000000000000602082015250565b6000610832602c8361063b565b915061083d826107d6565b604082019050919050565b6000602082019050818103600083015261086181610825565b9050919050565b7f4e487b7100000000000000000000000000000000000000000000000000000000600052601160045260246000fd5b60006108a2826106b8565b91507fffffffffffffffffffffffffffffffffffffffffffffffffffffffffffffffff82036108d4576108d3610868565b5b600182019050919050565b60006108ea826106b8565b91506108f5836106b8565b92508282101561090857610907610868565b5b828203905092915050565b6000819050919050565b61092e610929826106b8565b610913565b82525050565b600073ffffffffffffffffffffffffffffffffffffffff82169050919050565b600061095f82610934565b9050919050565b60008160601b9050919050565b600061097e82610966565b9050919050565b600061099082610973565b9050919050565b6109a86109a382610954565b610985565b82525050565b60006109ba828661091d565b6020820191506109ca8285610997565b6014820191506109da828461091d565b602082019150819050949350505050565b7f4e487b7100000000000000000000000000000000000000000000000000000000600052601260045260246000fd5b6000610a25826106b8565b9150610a30836106b8565b925082610a4057610a3f6109eb565b5b828206905092915050565b7f4e487b7100000000000000000000000000000000000000000000000000000000600052602260045260246000fd5b60006002820490506001821680610a9257607f821691505b602082108103610aa557610aa4610a4b565b5b5091905056fea2646970667358221220909c6a5eb2d34469fc5d13dee4d1f7e1fef0a0aa3889f8980edfdd4457151b8e64736f6c634300080d0033",
  "immutableReferences": {},
  "source": "// SPDX-License-Identifier: MIT\npragma solidity >=0.4.22 <0.9.0;\n\ncontract RLottery {\n  struct player {\n    string name;\n  }\n  uint private constant maxPlayers = 10;\n  uint private num;\n  mapping (uint => player) public players;\n\n  function getTickets(string memory name) public returns(string memory, uint) {\n    require(num <= maxPlayers, \"There are already 10 players in the lottery!\");\n    num++;\n    players[num] = player(name);\n    return (\"Your ticket is \",num);\n  }\n\n  function Winner() public view returns(string memory, string memory, string memory, uint) {\n    uint ticket;\n    uint randomNumber = uint(keccak256(abi.encodePacked(block.timestamp, msg.sender, num))) % (num - 1);\n    randomNumber++;\n    ticket = randomNumber % num;\n    return (\"The winner name is \", players[ticket].name, \"The winner ticket is \", ticket);\n  }\n}\n",
  "sourcePath": "C:\\Users\\1nuts\\IdeaProjects\\simplegames\\contracts\\RLottery.sol",
  "compiler": {
    "name": "solc",
    "version": "0.8.13+commit.abaa5c0e.Emscripten.clang"
  },
  "schemaVersion": "3.4.7",
  "updatedAt": "2022-04-23T15:12:56.589Z",
  "networkType": "ethereum",
  "devdoc": {
    "kind": "dev",
    "methods": {},
    "version": 1
  },
  "userdoc": {
    "kind": "user",
    "methods": {},
    "version": 1
  }
}