{
  "contractName": "Address",
  "abi": [
    {
      "inputs": [
        {
          "internalType": "address",
          "name": "userAddress",
          "type": "address"
        }
      ],
      "name": "set",
      "outputs": [],
      "stateMutability": "nonpayable",
      "type": "function"
    },
    {
      "inputs": [
        {
          "internalType": "address",
          "name": "userAddress",
          "type": "address"
        }
      ],
      "name": "get",
      "outputs": [
        {
          "internalType": "int256",
          "name": "",
          "type": "int256"
        }
      ],
      "stateMutability": "view",
      "type": "function"
    },
    {
      "inputs": [],
      "name": "getAll",
      "outputs": [
        {
          "internalType": "address[]",
          "name": "",
          "type": "address[]"
        }
      ],
      "stateMutability": "view",
      "type": "function"
    }
  ],
  "bytecode": "0x608060405234801561001057600080fd5b5061058d806100206000396000f3fe608060405234801561001057600080fd5b50600436106100415760003560e01c80632801617e1461004657806353ed514314610062578063c2bc2efc14610080575b600080fd5b610060600480360381019061005b9190610337565b6100b0565b005b61006a61011e565b6040516100779190610422565b60405180910390f35b61009a60048036038101906100959190610337565b610217565b6040516100a7919061045d565b60405180910390f35b80600080600154815260200190815260200160002060006101000a81548173ffffffffffffffffffffffffffffffffffffffff021916908373ffffffffffffffffffffffffffffffffffffffff16021790555060016000815480929190610116906104b1565b919050555050565b6060600060015467ffffffffffffffff81111561013e5761013d6104f9565b5b60405190808252806020026020018201604052801561016c5781602001602082028036833780820191505090505b50905060005b60015481101561020f5760008082815260200190815260200160002060009054906101000a900473ffffffffffffffffffffffffffffffffffffffff168282815181106101c2576101c1610528565b5b602002602001019073ffffffffffffffffffffffffffffffffffffffff16908173ffffffffffffffffffffffffffffffffffffffff16815250508080610207906104b1565b915050610172565b508091505090565b600080600090505b6001548110156102aa578273ffffffffffffffffffffffffffffffffffffffff1660008083815260200190815260200160002060009054906101000a900473ffffffffffffffffffffffffffffffffffffffff1673ffffffffffffffffffffffffffffffffffffffff160361029757809150506102cf565b80806102a2906104b1565b91505061021f565b507fffffffffffffffffffffffffffffffffffffffffffffffffffffffffffffffff90505b919050565b600080fd5b600073ffffffffffffffffffffffffffffffffffffffff82169050919050565b6000610304826102d9565b9050919050565b610314816102f9565b811461031f57600080fd5b50565b6000813590506103318161030b565b92915050565b60006020828403121561034d5761034c6102d4565b5b600061035b84828501610322565b91505092915050565b600081519050919050565b600082825260208201905092915050565b6000819050602082019050919050565b610399816102f9565b82525050565b60006103ab8383610390565b60208301905092915050565b6000602082019050919050565b60006103cf82610364565b6103d9818561036f565b93506103e483610380565b8060005b838110156104155781516103fc888261039f565b9750610407836103b7565b9250506001810190506103e8565b5085935050505092915050565b6000602082019050818103600083015261043c81846103c4565b905092915050565b6000819050919050565b61045781610444565b82525050565b6000602082019050610472600083018461044e565b92915050565b7f4e487b7100000000000000000000000000000000000000000000000000000000600052601160045260246000fd5b6000819050919050565b60006104bc826104a7565b91507fffffffffffffffffffffffffffffffffffffffffffffffffffffffffffffffff82036104ee576104ed610478565b5b600182019050919050565b7f4e487b7100000000000000000000000000000000000000000000000000000000600052604160045260246000fd5b7f4e487b7100000000000000000000000000000000000000000000000000000000600052603260045260246000fdfea2646970667358221220a1474ce3dc8dff0068b003cdf8c276758ca18cde7c4445e9e1abd84202a84d9564736f6c634300080d0033",
  "immutableReferences": {},
  "source": "// SPDX-License-Identifier: MIT\npragma solidity >=0.4.22 <0.9.0;\n\ncontract Address {\n  mapping(uint => address) addresses;\n  uint count;\n\n  function set(address userAddress) public {\n    addresses[count] = userAddress;\n    count++;\n  }\n\n  function get(address userAddress) public view returns (int) {\n    for (uint i = 0; i < count; i++) {\n     if (addresses[i] == userAddress)\n      return int(i);\n    }\n    return -1;\n  }\n\n  function getAll() public view returns (address[] memory) {\n    address[] memory all = new address[](count);\n    for (uint i = 0; i < count; i++) {\n      all[i] = addresses[i];\n    }\n    return all;\n  }\n}\n",
  "sourcePath": "C:\\Users\\1nuts\\IdeaProjects\\simpledata\\contracts\\Address.sol",
  "compiler": {
    "name": "solc",
    "version": "0.8.13+commit.abaa5c0e.Emscripten.clang"
  },
  "schemaVersion": "3.4.7",
  "updatedAt": "2022-04-21T17:48:38.618Z",
  "devdoc": {
    "kind": "dev",
    "methods": {},
    "version": 1
  },
  "userdoc": {
    "kind": "user",
    "methods": {},
    "version": 1
  }
}