{
  "contractName": "Grades",
  "abi": [
    {
      "inputs": [
        {
          "internalType": "string",
          "name": "",
          "type": "string"
        }
      ],
      "name": "results",
      "outputs": [
        {
          "internalType": "uint256",
          "name": "amount",
          "type": "uint256"
        },
        {
          "internalType": "uint256",
          "name": "sum",
          "type": "uint256"
        },
        {
          "internalType": "uint256",
          "name": "average",
          "type": "uint256"
        }
      ],
      "stateMutability": "view",
      "type": "function"
    },
    {
      "inputs": [
        {
          "internalType": "string",
          "name": "title",
          "type": "string"
        },
        {
          "internalType": "uint256",
          "name": "grade",
          "type": "uint256"
        }
      ],
      "name": "addGrade",
      "outputs": [],
      "stateMutability": "nonpayable",
      "type": "function"
    },
    {
      "inputs": [
        {
          "internalType": "string",
          "name": "title",
          "type": "string"
        }
      ],
      "name": "getClassInformation",
      "outputs": [
        {
          "internalType": "uint256",
          "name": "",
          "type": "uint256"
        },
        {
          "internalType": "uint256",
          "name": "",
          "type": "uint256"
        },
        {
          "internalType": "uint256",
          "name": "",
          "type": "uint256"
        }
      ],
      "stateMutability": "view",
      "type": "function"
    }
  ],
  "bytecode": "0x608060405234801561001057600080fd5b506106eb806100206000396000f3fe608060405234801561001057600080fd5b50600436106100415760003560e01c80632869398a1461004657806331a55f16146100785780634b13d17d14610094575b600080fd5b610060600480360381019061005b91906103d6565b6100c6565b60405161006f93929190610438565b60405180910390f35b610092600480360381019061008d919061049b565b61013d565b005b6100ae60048036038101906100a991906103d6565b61023c565b6040516100bd93929190610438565b60405180910390f35b600080600080846040516100da9190610571565b9081526020016040518091039020600001546000856040516100fc9190610571565b90815260200160405180910390206001015460008660405161011e9190610571565b9081526020016040518091039020600201549250925092509193909250565b60008111801561014d5750600681105b61015657600080fd5b6000826040516101669190610571565b90815260200160405180910390206000016000815480929190610188906105b7565b91905055508060008360405161019e9190610571565b908152602001604051809103902060010160008282546101be91906105ff565b925050819055506000826040516101d59190610571565b9081526020016040518091039020600001546000836040516101f79190610571565b9081526020016040518091039020600101546102139190610684565b6000836040516102239190610571565b9081526020016040518091039020600201819055505050565b6000818051602081018201805184825260208301602085012081835280955050505050506000915090508060000154908060010154908060020154905083565b6000604051905090565b600080fd5b600080fd5b600080fd5b600080fd5b6000601f19601f8301169050919050565b7f4e487b7100000000000000000000000000000000000000000000000000000000600052604160045260246000fd5b6102e38261029a565b810181811067ffffffffffffffff82111715610302576103016102ab565b5b80604052505050565b600061031561027c565b905061032182826102da565b919050565b600067ffffffffffffffff821115610341576103406102ab565b5b61034a8261029a565b9050602081019050919050565b82818337600083830152505050565b600061037961037484610326565b61030b565b90508281526020810184848401111561039557610394610295565b5b6103a0848285610357565b509392505050565b600082601f8301126103bd576103bc610290565b5b81356103cd848260208601610366565b91505092915050565b6000602082840312156103ec576103eb610286565b5b600082013567ffffffffffffffff81111561040a5761040961028b565b5b610416848285016103a8565b91505092915050565b6000819050919050565b6104328161041f565b82525050565b600060608201905061044d6000830186610429565b61045a6020830185610429565b6104676040830184610429565b949350505050565b6104788161041f565b811461048357600080fd5b50565b6000813590506104958161046f565b92915050565b600080604083850312156104b2576104b1610286565b5b600083013567ffffffffffffffff8111156104d0576104cf61028b565b5b6104dc858286016103a8565b92505060206104ed85828601610486565b9150509250929050565b600081519050919050565b600081905092915050565b60005b8381101561052b578082015181840152602081019050610510565b8381111561053a576000848401525b50505050565b600061054b826104f7565b6105558185610502565b935061056581856020860161050d565b80840191505092915050565b600061057d8284610540565b915081905092915050565b7f4e487b7100000000000000000000000000000000000000000000000000000000600052601160045260246000fd5b60006105c28261041f565b91507fffffffffffffffffffffffffffffffffffffffffffffffffffffffffffffffff82036105f4576105f3610588565b5b600182019050919050565b600061060a8261041f565b91506106158361041f565b9250827fffffffffffffffffffffffffffffffffffffffffffffffffffffffffffffffff0382111561064a57610649610588565b5b828201905092915050565b7f4e487b7100000000000000000000000000000000000000000000000000000000600052601260045260246000fd5b600061068f8261041f565b915061069a8361041f565b9250826106aa576106a9610655565b5b82820490509291505056fea264697066735822122009e7b5042c40ea46fd3035f315dcd0ccebe721ed212611f4ad52b2ffde4fc5bb64736f6c634300080d0033",
  "immutableReferences": {},
  "source": "// SPDX-License-Identifier: MIT\npragma solidity >=0.4.22 <0.9.0;\n\ncontract Grades {\n  struct Calc {\n    uint amount;\n    uint sum;\n    uint average;\n  }\n\n  mapping (string => Calc) public results;\n\n  function addGrade(string memory title, uint grade) public {\n    require(grade > 0 && grade < 6);\n    results[title].amount++;\n    results[title].sum += grade;\n    results[title].average = uint(results[title].sum / results[title].amount);\n  }\n\n  function getClassInformation(string memory title) public view returns (uint, uint, uint) {\n    return (results[title].amount, results[title].sum, results[title].average);\n  }\n}\n",
  "sourcePath": "C:\\Users\\1nuts\\IdeaProjects\\simpledata\\contracts\\Grades.sol",
  "compiler": {
    "name": "solc",
    "version": "0.8.13+commit.abaa5c0e.Emscripten.clang"
  },
  "schemaVersion": "3.4.7",
  "updatedAt": "2022-04-21T17:48:38.623Z",
  "devdoc": {
    "kind": "dev",
    "methods": {},
    "version": 1
  },
  "userdoc": {
    "kind": "user",
    "methods": {},
    "version": 1
  }
}