{
  "contractName": "NewNote",
  "abi": [
    {
      "inputs": [
        {
          "internalType": "string",
          "name": "",
          "type": "string"
        }
      ],
      "name": "users",
      "outputs": [
        {
          "internalType": "string",
          "name": "name",
          "type": "string"
        },
        {
          "internalType": "uint256",
          "name": "number",
          "type": "uint256"
        },
        {
          "internalType": "string",
          "name": "adress",
          "type": "string"
        }
      ],
      "stateMutability": "view",
      "type": "function"
    },
    {
      "inputs": [
        {
          "internalType": "string",
          "name": "name",
          "type": "string"
        },
        {
          "internalType": "uint256",
          "name": "number",
          "type": "uint256"
        },
        {
          "internalType": "string",
          "name": "adress",
          "type": "string"
        }
      ],
      "name": "setUser",
      "outputs": [],
      "stateMutability": "nonpayable",
      "type": "function"
    },
    {
      "inputs": [
        {
          "internalType": "string",
          "name": "name",
          "type": "string"
        }
      ],
      "name": "getUser",
      "outputs": [
        {
          "internalType": "string",
          "name": "",
          "type": "string"
        },
        {
          "internalType": "uint256",
          "name": "",
          "type": "uint256"
        },
        {
          "internalType": "string",
          "name": "",
          "type": "string"
        }
      ],
      "stateMutability": "view",
      "type": "function"
    }
  ],
  "bytecode": "0x608060405234801561001057600080fd5b506108f6806100206000396000f3fe608060405234801561001057600080fd5b50600436106100415760003560e01c80631d7067711461004657806331feb67114610062578063689e1c0314610094575b600080fd5b610060600480360381019061005b919061065d565b6100c6565b005b61007c600480360381019061007791906106e8565b61014b565b60405161008b939291906107c8565b60405180910390f35b6100ae60048036038101906100a991906106e8565b6102da565b6040516100bd939291906107c8565b60405180910390f35b6040518060600160405280848152602001838152602001828152506000846040516100f19190610849565b9081526020016040518091039020600082015181600001908051906020019061011b92919061042a565b5060208201518160010155604082015181600201908051906020019061014292919061042a565b50905050505050565b6060600060606000846040516101619190610849565b90815260200160405180910390206000016000856040516101829190610849565b9081526020016040518091039020600101546000866040516101a49190610849565b90815260200160405180910390206002018280546101c19061088f565b80601f01602080910402602001604051908101604052809291908181526020018280546101ed9061088f565b801561023a5780601f1061020f5761010080835404028352916020019161023a565b820191906000526020600020905b81548152906001019060200180831161021d57829003601f168201915b5050505050925080805461024d9061088f565b80601f01602080910402602001604051908101604052809291908181526020018280546102799061088f565b80156102c65780601f1061029b576101008083540402835291602001916102c6565b820191906000526020600020905b8154815290600101906020018083116102a957829003601f168201915b505050505090509250925092509193909250565b6000818051602081018201805184825260208301602085012081835280955050505050506000915090508060000180546103139061088f565b80601f016020809104026020016040519081016040528092919081815260200182805461033f9061088f565b801561038c5780601f106103615761010080835404028352916020019161038c565b820191906000526020600020905b81548152906001019060200180831161036f57829003601f168201915b5050505050908060010154908060020180546103a79061088f565b80601f01602080910402602001604051908101604052809291908181526020018280546103d39061088f565b80156104205780601f106103f557610100808354040283529160200191610420565b820191906000526020600020905b81548152906001019060200180831161040357829003601f168201915b5050505050905083565b8280546104369061088f565b90600052602060002090601f016020900481019282610458576000855561049f565b82601f1061047157805160ff191683800117855561049f565b8280016001018555821561049f579182015b8281111561049e578251825591602001919060010190610483565b5b5090506104ac91906104b0565b5090565b5b808211156104c95760008160009055506001016104b1565b5090565b6000604051905090565b600080fd5b600080fd5b600080fd5b600080fd5b6000601f19601f8301169050919050565b7f4e487b7100000000000000000000000000000000000000000000000000000000600052604160045260246000fd5b610534826104eb565b810181811067ffffffffffffffff82111715610553576105526104fc565b5b80604052505050565b60006105666104cd565b9050610572828261052b565b919050565b600067ffffffffffffffff821115610592576105916104fc565b5b61059b826104eb565b9050602081019050919050565b82818337600083830152505050565b60006105ca6105c584610577565b61055c565b9050828152602081018484840111156105e6576105e56104e6565b5b6105f18482856105a8565b509392505050565b600082601f83011261060e5761060d6104e1565b5b813561061e8482602086016105b7565b91505092915050565b6000819050919050565b61063a81610627565b811461064557600080fd5b50565b60008135905061065781610631565b92915050565b600080600060608486031215610676576106756104d7565b5b600084013567ffffffffffffffff811115610694576106936104dc565b5b6106a0868287016105f9565b93505060206106b186828701610648565b925050604084013567ffffffffffffffff8111156106d2576106d16104dc565b5b6106de868287016105f9565b9150509250925092565b6000602082840312156106fe576106fd6104d7565b5b600082013567ffffffffffffffff81111561071c5761071b6104dc565b5b610728848285016105f9565b91505092915050565b600081519050919050565b600082825260208201905092915050565b60005b8381101561076b578082015181840152602081019050610750565b8381111561077a576000848401525b50505050565b600061078b82610731565b610795818561073c565b93506107a581856020860161074d565b6107ae816104eb565b840191505092915050565b6107c281610627565b82525050565b600060608201905081810360008301526107e28186610780565b90506107f160208301856107b9565b81810360408301526108038184610780565b9050949350505050565b600081905092915050565b600061082382610731565b61082d818561080d565b935061083d81856020860161074d565b80840191505092915050565b60006108558284610818565b915081905092915050565b7f4e487b7100000000000000000000000000000000000000000000000000000000600052602260045260246000fd5b600060028204905060018216806108a757607f821691505b6020821081036108ba576108b9610860565b5b5091905056fea2646970667358221220002c2b1059fb9905e16a45bfe641d6917322ff4f2c70c1dd625a7b112314c9ce64736f6c634300080d0033",
  "immutableReferences": {},
  "source": "// SPDX-License-Identifier: MIT\npragma solidity >=0.4.22 <0.9.0;\n\ncontract NewNote {\n  struct user {\n    string name;\n    uint number;\n    string adress;\n  }\n  mapping(string => user) public users;\n\n  function setUser(string memory name, uint number, string memory adress) public {\n    users[name] = user(name, number, adress);\n  }\n  function getUser(string memory name) public view returns(string memory, uint, string memory) {\n    return (users[name].name, users[name].number, users[name].adress);\n  }\n}\n",
  "sourcePath": "C:\\Users\\1nuts\\IdeaProjects\\simpledata\\contracts\\NewNote.sol",
  "compiler": {
    "name": "solc",
    "version": "0.8.13+commit.abaa5c0e.Emscripten.clang"
  },
  "schemaVersion": "3.4.7",
  "updatedAt": "2022-04-21T17:48:38.633Z",
  "devdoc": {
    "kind": "dev",
    "methods": {},
    "version": 1
  },
  "userdoc": {
    "kind": "user",
    "methods": {},
    "version": 1
  }
}