{
  "contractName": "Owner",
  "abi": [
    {
      "inputs": [],
      "stateMutability": "nonpayable",
      "type": "constructor"
    },
    {
      "inputs": [
        {
          "internalType": "string",
          "name": "",
          "type": "string"
        }
      ],
      "name": "users",
      "outputs": [
        {
          "internalType": "string",
          "name": "name",
          "type": "string"
        },
        {
          "internalType": "uint256",
          "name": "number",
          "type": "uint256"
        },
        {
          "internalType": "uint256",
          "name": "age",
          "type": "uint256"
        }
      ],
      "stateMutability": "view",
      "type": "function"
    },
    {
      "inputs": [
        {
          "internalType": "string",
          "name": "name",
          "type": "string"
        },
        {
          "internalType": "uint256",
          "name": "number",
          "type": "uint256"
        },
        {
          "internalType": "uint256",
          "name": "age",
          "type": "uint256"
        }
      ],
      "name": "setUser",
      "outputs": [],
      "stateMutability": "nonpayable",
      "type": "function"
    },
    {
      "inputs": [
        {
          "internalType": "string",
          "name": "name",
          "type": "string"
        }
      ],
      "name": "getUser",
      "outputs": [
        {
          "internalType": "bool",
          "name": "",
          "type": "bool"
        },
        {
          "internalType": "string",
          "name": "",
          "type": "string"
        },
        {
          "internalType": "uint256",
          "name": "",
          "type": "uint256"
        },
        {
          "internalType": "uint256",
          "name": "",
          "type": "uint256"
        }
      ],
      "stateMutability": "view",
      "type": "function"
    }
  ],
  "bytecode": "0x608060405234801561001057600080fd5b50336000806101000a81548173ffffffffffffffffffffffffffffffffffffffff021916908373ffffffffffffffffffffffffffffffffffffffff1602179055506109ef806100606000396000f3fe608060405234801561001057600080fd5b50600436106100415760003560e01c806331feb67114610046578063689e1c0314610079578063ebd8c4c8146100ab575b600080fd5b610060600480360381019061005b9190610670565b6100c7565b6040516100709493929190610775565b60405180910390f35b610093600480360381019061008e9190610670565b6102ab565b6040516100a2939291906107c1565b60405180910390f35b6100c560048036038101906100c0919061082b565b610373565b005b6000606060008060008054906101000a900473ffffffffffffffffffffffffffffffffffffffff1673ffffffffffffffffffffffffffffffffffffffff163373ffffffffffffffffffffffffffffffffffffffff161461015c576040517f08c379a0000000000000000000000000000000000000000000000000000000008152600401610153906108e6565b60405180910390fd5b60008054906101000a900473ffffffffffffffffffffffffffffffffffffffff1673ffffffffffffffffffffffffffffffffffffffff163373ffffffffffffffffffffffffffffffffffffffff16146001866040516101bb9190610942565b90815260200160405180910390206000016001876040516101dc9190610942565b9081526020016040518091039020600101546001886040516101fe9190610942565b90815260200160405180910390206002015482805461021c90610988565b80601f016020809104026020016040519081016040528092919081815260200182805461024890610988565b80156102955780601f1061026a57610100808354040283529160200191610295565b820191906000526020600020905b81548152906001019060200180831161027857829003601f168201915b5050505050925093509350935093509193509193565b6001818051602081018201805184825260208301602085012081835280955050505050506000915090508060000180546102e490610988565b80601f016020809104026020016040519081016040528092919081815260200182805461031090610988565b801561035d5780601f106103325761010080835404028352916020019161035d565b820191906000526020600020905b81548152906001019060200180831161034057829003601f168201915b5050505050908060010154908060020154905083565b60008054906101000a900473ffffffffffffffffffffffffffffffffffffffff1673ffffffffffffffffffffffffffffffffffffffff163373ffffffffffffffffffffffffffffffffffffffff1614610401576040517f08c379a00000000000000000000000000000000000000000000000000000000081526004016103f8906108e6565b60405180910390fd5b60405180606001604052808481526020018381526020018281525060018460405161042c9190610942565b90815260200160405180910390206000820151816000019080519060200190610456929190610473565b506020820151816001015560408201518160020155905050505050565b82805461047f90610988565b90600052602060002090601f0160209004810192826104a157600085556104e8565b82601f106104ba57805160ff19168380011785556104e8565b828001600101855582156104e8579182015b828111156104e75782518255916020019190600101906104cc565b5b5090506104f591906104f9565b5090565b5b808211156105125760008160009055506001016104fa565b5090565b6000604051905090565b600080fd5b600080fd5b600080fd5b600080fd5b6000601f19601f8301169050919050565b7f4e487b7100000000000000000000000000000000000000000000000000000000600052604160045260246000fd5b61057d82610534565b810181811067ffffffffffffffff8211171561059c5761059b610545565b5b80604052505050565b60006105af610516565b90506105bb8282610574565b919050565b600067ffffffffffffffff8211156105db576105da610545565b5b6105e482610534565b9050602081019050919050565b82818337600083830152505050565b600061061361060e846105c0565b6105a5565b90508281526020810184848401111561062f5761062e61052f565b5b61063a8482856105f1565b509392505050565b600082601f8301126106575761065661052a565b5b8135610667848260208601610600565b91505092915050565b60006020828403121561068657610685610520565b5b600082013567ffffffffffffffff8111156106a4576106a3610525565b5b6106b084828501610642565b91505092915050565b60008115159050919050565b6106ce816106b9565b82525050565b600081519050919050565b600082825260208201905092915050565b60005b8381101561070e5780820151818401526020810190506106f3565b8381111561071d576000848401525b50505050565b600061072e826106d4565b61073881856106df565b93506107488185602086016106f0565b61075181610534565b840191505092915050565b6000819050919050565b61076f8161075c565b82525050565b600060808201905061078a60008301876106c5565b818103602083015261079c8186610723565b90506107ab6040830185610766565b6107b86060830184610766565b95945050505050565b600060608201905081810360008301526107db8186610723565b90506107ea6020830185610766565b6107f76040830184610766565b949350505050565b6108088161075c565b811461081357600080fd5b50565b600081359050610825816107ff565b92915050565b60008060006060848603121561084457610843610520565b5b600084013567ffffffffffffffff81111561086257610861610525565b5b61086e86828701610642565b935050602061087f86828701610816565b925050604061089086828701610816565b9150509250925092565b7f4e6f7420616e206f776e65720000000000000000000000000000000000000000600082015250565b60006108d0600c836106df565b91506108db8261089a565b602082019050919050565b600060208201905081810360008301526108ff816108c3565b9050919050565b600081905092915050565b600061091c826106d4565b6109268185610906565b93506109368185602086016106f0565b80840191505092915050565b600061094e8284610911565b915081905092915050565b7f4e487b7100000000000000000000000000000000000000000000000000000000600052602260045260246000fd5b600060028204905060018216806109a057607f821691505b6020821081036109b3576109b2610959565b5b5091905056fea2646970667358221220e0777c14d2ffb5ab8da065b9809d6df2472aee4ab706bae4a8deb9033e6a9b3864736f6c634300080d0033",
  "immutableReferences": {},
  "source": "// SPDX-License-Identifier: MIT\npragma solidity >=0.4.22 <0.9.0;\n\ncontract Owner {\n  address owner;\n\n  struct user {\n    string name;\n    uint number;\n    uint age;\n  }\n\n  mapping(string => user) public users;\n\n  constructor() {\n    owner = msg.sender;\n  }\n\n  function setUser(string memory name, uint number, uint age) public {\n    require(msg.sender == owner, \"Not an owner\");\n    users[name] = user(name, number, age);\n  }\n\n  function getUser(string memory name) public view returns(bool, string memory, uint, uint) {\n    require(msg.sender == owner, \"Not an owner\");\n    return (msg.sender == owner, users[name].name, users[name].number, users[name].age);\n  }\n}\n",
  "sourcePath": "C:\\Users\\1nuts\\IdeaProjects\\simpledata\\contracts\\Owner.sol",
  "compiler": {
    "name": "solc",
    "version": "0.8.13+commit.abaa5c0e.Emscripten.clang"
  },
  "schemaVersion": "3.4.7",
  "updatedAt": "2022-04-21T17:48:38.645Z",
  "devdoc": {
    "kind": "dev",
    "methods": {},
    "version": 1
  },
  "userdoc": {
    "kind": "user",
    "methods": {},
    "version": 1
  }
}