{
  "contractName": "Calculator",
  "abi": [
    {
      "inputs": [
        {
          "internalType": "int256",
          "name": "x",
          "type": "int256"
        },
        {
          "internalType": "bytes32",
          "name": "oper",
          "type": "bytes32"
        },
        {
          "internalType": "int256",
          "name": "y",
          "type": "int256"
        }
      ],
      "name": "getCalk",
      "outputs": [
        {
          "internalType": "int256",
          "name": "",
          "type": "int256"
        }
      ],
      "stateMutability": "pure",
      "type": "function",
      "constant": true
    }
  ],
  "bytecode": "0x608060405234801561001057600080fd5b506105a0806100206000396000f3fe608060405234801561001057600080fd5b506004361061002b5760003560e01c8063f628907214610030575b600080fd5b61004a600480360381019061004591906101e6565b610060565b6040516100579190610248565b60405180910390f35b60007f2b00000000000000000000000000000000000000000000000000000000000000830361009c5781846100959190610292565b905061016e565b7f2d0000000000000000000000000000000000000000000000000000000000000083036100d65781846100cf9190610326565b905061016e565b7f2a00000000000000000000000000000000000000000000000000000000000000830361011057818461010991906103ba565b905061016e565b7f2f00000000000000000000000000000000000000000000000000000000000000830361014a5781846101439190610500565b905061016e565b7fffffffffffffffffffffffffffffffffffffffffffffffffffffffffffffffff90505b9392505050565b600080fd5b6000819050919050565b61018d8161017a565b811461019857600080fd5b50565b6000813590506101aa81610184565b92915050565b6000819050919050565b6101c3816101b0565b81146101ce57600080fd5b50565b6000813590506101e0816101ba565b92915050565b6000806000606084860312156101ff576101fe610175565b5b600061020d8682870161019b565b935050602061021e868287016101d1565b925050604061022f8682870161019b565b9150509250925092565b6102428161017a565b82525050565b600060208201905061025d6000830184610239565b92915050565b7f4e487b7100000000000000000000000000000000000000000000000000000000600052601160045260246000fd5b600061029d8261017a565b91506102a88361017a565b9250817f7fffffffffffffffffffffffffffffffffffffffffffffffffffffffffffffff038313600083121516156102e3576102e2610263565b5b817f800000000000000000000000000000000000000000000000000000000000000003831260008312161561031b5761031a610263565b5b828201905092915050565b60006103318261017a565b915061033c8361017a565b9250827f80000000000000000000000000000000000000000000000000000000000000000182126000841215161561037757610376610263565b5b827f7fffffffffffffffffffffffffffffffffffffffffffffffffffffffffffffff0182136000841216156103af576103ae610263565b5b828203905092915050565b60006103c58261017a565b91506103d08361017a565b9250827f7fffffffffffffffffffffffffffffffffffffffffffffffffffffffffffffff048211600084136000841316161561040f5761040e610263565b5b817f8000000000000000000000000000000000000000000000000000000000000000058312600084126000841316161561044c5761044b610263565b5b827f8000000000000000000000000000000000000000000000000000000000000000058212600084136000841216161561048957610488610263565b5b827f7fffffffffffffffffffffffffffffffffffffffffffffffffffffffffffffff05821260008412600084121616156104c6576104c5610263565b5b828202905092915050565b7f4e487b7100000000000000000000000000000000000000000000000000000000600052601260045260246000fd5b600061050b8261017a565b91506105168361017a565b925082610526576105256104d1565b5b600160000383147f80000000000000000000000000000000000000000000000000000000000000008314161561055f5761055e610263565b5b82820590509291505056fea26469706673582212209eaf4e7898cbf6a53403f88f1acc11b20be9d54c431cc64372c0f89d7610976464736f6c634300080d0033",
  "immutableReferences": {},
  "source": "// SPDX-License-Identifier: MIT\npragma solidity >=0.4.22 <0.9.0;\n\ncontract Calculator {\n  function getCalk(int256 x, bytes32 oper, int256 y) public pure returns (int256) {\n    if (oper == '+')\n      return x + y;\n    if (oper == '-')\n      return x - y;\n    if (oper == '*')\n      return x * y;\n    if (oper == '/')\n      return x / y;\n    return -1;\n  }\n}\n",
  "sourcePath": "C:\\Users\\1nuts\\IdeaProjects\\SimpleContracts\\contracts\\Calculator.sol",
  "compiler": {
    "name": "solc",
    "version": "0.8.13+commit.abaa5c0e.Emscripten.clang"
  },
  "schemaVersion": "3.4.7",
  "updatedAt": "2022-04-20T20:36:07.045Z",
  "networkType": "ethereum",
  "devdoc": {
    "kind": "dev",
    "methods": {},
    "version": 1
  },
  "userdoc": {
    "kind": "user",
    "methods": {},
    "version": 1
  }
}