{
  "contractName": "Factorial",
  "abi": [
    {
      "inputs": [
        {
          "internalType": "uint256",
          "name": "n",
          "type": "uint256"
        }
      ],
      "name": "getFactorial",
      "outputs": [
        {
          "internalType": "uint256",
          "name": "",
          "type": "uint256"
        }
      ],
      "stateMutability": "pure",
      "type": "function",
      "constant": true
    }
  ],
  "bytecode": "0x608060405234801561001057600080fd5b50610237806100206000396000f3fe608060405234801561001057600080fd5b506004361061002b5760003560e01c80638235841414610030575b600080fd5b61004a600480360381019061004591906100d9565b610060565b6040516100579190610115565b60405180910390f35b600080600190506000600190505b838111610094578082610081919061015f565b91508061008d906101b9565b905061006e565b5080915050919050565b600080fd5b6000819050919050565b6100b6816100a3565b81146100c157600080fd5b50565b6000813590506100d3816100ad565b92915050565b6000602082840312156100ef576100ee61009e565b5b60006100fd848285016100c4565b91505092915050565b61010f816100a3565b82525050565b600060208201905061012a6000830184610106565b92915050565b7f4e487b7100000000000000000000000000000000000000000000000000000000600052601160045260246000fd5b600061016a826100a3565b9150610175836100a3565b9250817fffffffffffffffffffffffffffffffffffffffffffffffffffffffffffffffff04831182151516156101ae576101ad610130565b5b828202905092915050565b60006101c4826100a3565b91507fffffffffffffffffffffffffffffffffffffffffffffffffffffffffffffffff82036101f6576101f5610130565b5b60018201905091905056fea2646970667358221220c2b7ca71759a35ad9d7e8c04a1b02a7367ce5953d00fe4416a028fe6471dff0964736f6c634300080d0033",
  "immutableReferences": {},
  "source": "// SPDX-License-Identifier: MIT\npragma solidity >=0.4.22 <0.9.0;\n\ncontract Factorial {\n  function getFactorial(uint n) public pure returns (uint256) {\n    uint256 f = 1;\n    for (uint256 i = 1; i <= n; ++i) {\n      f *= i;\n    }\n    return f;\n  }\n}\n",
  "sourcePath": "C:\\Users\\1nuts\\IdeaProjects\\SimpleContracts\\contracts\\Factorial.sol",
  "compiler": {
    "name": "solc",
    "version": "0.8.13+commit.abaa5c0e.Emscripten.clang"
  },
  "schemaVersion": "3.4.7",
  "updatedAt": "2022-04-20T20:36:05.208Z",
  "networkType": "ethereum",
  "devdoc": {
    "kind": "dev",
    "methods": {},
    "version": 1
  },
  "userdoc": {
    "kind": "user",
    "methods": {},
    "version": 1
  }
}